{
  "contractName": "InsuranceContractManager",
  "abi": [
    {
      "constant": true,
      "inputs": [
        {
          "name": "",
          "type": "address"
        }
      ],
      "name": "insureeToContractMapping",
      "outputs": [
        {
          "name": "",
          "type": "address"
        }
      ],
      "payable": false,
      "stateMutability": "view",
      "type": "function",
      "signature": "0x9d40fd2c"
    },
    {
      "constant": true,
      "inputs": [],
      "name": "insuranceContractConditions",
      "outputs": [
        {
          "name": "premium",
          "type": "uint256"
        },
        {
          "name": "amountDelay",
          "type": "uint256"
        },
        {
          "name": "amountLost",
          "type": "uint256"
        },
        {
          "name": "revokeTimeLimit",
          "type": "uint256"
        },
        {
          "name": "timeLimitLuggageLost",
          "type": "uint256"
        },
        {
          "name": "timeLimitForPayOut",
          "type": "uint256"
        }
      ],
      "payable": false,
      "stateMutability": "view",
      "type": "function",
      "signature": "0xbcced142"
    },
    {
      "constant": true,
      "inputs": [
        {
          "name": "",
          "type": "address"
        }
      ],
      "name": "initializedContracts",
      "outputs": [
        {
          "name": "",
          "type": "bool"
        }
      ],
      "payable": false,
      "stateMutability": "view",
      "type": "function",
      "signature": "0xf4254426"
    },
    {
      "inputs": [
        {
          "name": "_addressBackend",
          "type": "address"
        },
        {
          "name": "premium",
          "type": "uint256"
        },
        {
          "name": "amountDelay",
          "type": "uint256"
        },
        {
          "name": "amountLost",
          "type": "uint256"
        },
        {
          "name": "revokeTimeLimit",
          "type": "uint256"
        },
        {
          "name": "timeLimitLuggageLost",
          "type": "uint256"
        },
        {
          "name": "timeLimitForPayOut",
          "type": "uint256"
        }
      ],
      "payable": false,
      "stateMutability": "nonpayable",
      "type": "constructor",
      "signature": "constructor"
    },
    {
      "anonymous": false,
      "inputs": [
        {
          "indexed": true,
          "name": "addressInsuree",
          "type": "address"
        },
        {
          "indexed": true,
          "name": "addressContract",
          "type": "address"
        }
      ],
      "name": "CreatedContract",
      "type": "event",
      "signature": "0xaf218eb9d453c327711e4c1e9521430f9b06c0250253f7c6c2b5668146450fbc"
    },
    {
      "anonymous": false,
      "inputs": [
        {
          "indexed": true,
          "name": "addressInsuree",
          "type": "address"
        },
        {
          "indexed": false,
          "name": "amount",
          "type": "uint256"
        },
        {
          "indexed": false,
          "name": "claimState",
          "type": "uint8"
        }
      ],
      "name": "SendPayout",
      "type": "event",
      "signature": "0x3f2f5fe0567c9168a1ad26baaad3611d102ec56a42a4beec0b817f7951a18c90"
    },
    {
      "anonymous": false,
      "inputs": [
        {
          "indexed": true,
          "name": "sender",
          "type": "address"
        },
        {
          "indexed": false,
          "name": "amount",
          "type": "uint256"
        }
      ],
      "name": "ReceivedMoney",
      "type": "event",
      "signature": "0xe3abd548243c02b6b6adfaa9f4d721e545bef8c1e915fd1158695d8c128be0f5"
    },
    {
      "constant": false,
      "inputs": [
        {
          "name": "premium",
          "type": "uint256"
        },
        {
          "name": "amountDelay",
          "type": "uint256"
        },
        {
          "name": "amountLost",
          "type": "uint256"
        },
        {
          "name": "revokeTimeLimit",
          "type": "uint256"
        },
        {
          "name": "timeLimitLuggageLost",
          "type": "uint256"
        },
        {
          "name": "timeLimitForPayOut",
          "type": "uint256"
        }
      ],
      "name": "setContractConditions",
      "outputs": [],
      "payable": false,
      "stateMutability": "nonpayable",
      "type": "function",
      "signature": "0x79a18c36"
    },
    {
      "constant": false,
      "inputs": [
        {
          "name": "_addressBackend",
          "type": "address"
        }
      ],
      "name": "setBackendAddress",
      "outputs": [],
      "payable": false,
      "stateMutability": "nonpayable",
      "type": "function",
      "signature": "0x1815ce7d"
    },
    {
      "constant": false,
      "inputs": [
        {
          "name": "test",
          "type": "bool"
        }
      ],
      "name": "createContract",
      "outputs": [
        {
          "name": "",
          "type": "address"
        }
      ],
      "payable": false,
      "stateMutability": "nonpayable",
      "type": "function",
      "signature": "0xc48bfa33"
    },
    {
      "constant": false,
      "inputs": [
        {
          "name": "amountToPay",
          "type": "uint256"
        }
      ],
      "name": "payout",
      "outputs": [],
      "payable": false,
      "stateMutability": "nonpayable",
      "type": "function",
      "signature": "0xe1152343"
    },
    {
      "constant": true,
      "inputs": [],
      "name": "getBalance",
      "outputs": [
        {
          "name": "",
          "type": "uint256"
        }
      ],
      "payable": false,
      "stateMutability": "view",
      "type": "function",
      "signature": "0x12065fe0"
    },
    {
      "constant": false,
      "inputs": [],
      "name": "receiveMoney",
      "outputs": [],
      "payable": true,
      "stateMutability": "payable",
      "type": "function",
      "signature": "0x6d26ec18"
    }
  ],
  "bytecode": "0x608060405234801561001057600080fd5b5060405160e0806151c8833981018060405260e081101561003057600080fd5b8101908080519060200190929190805190602001909291908051906020019092919080519060200190929190805190602001909291908051906020019092919080519060200190929190505050336000806101000a81548173ffffffffffffffffffffffffffffffffffffffff021916908373ffffffffffffffffffffffffffffffffffffffff16021790555086600160006101000a81548173ffffffffffffffffffffffffffffffffffffffff021916908373ffffffffffffffffffffffffffffffffffffffff1602179055506040518060c00160405280878152602001868152602001858152602001848152602001838152602001828152506004600082015181600001556020820151816001015560408201518160020155606082015181600301556080820151816004015560a0820151816005015590505050505050505050615046806101826000396000f3fe6080604052600436106100a3576000357c0100000000000000000000000000000000000000000000000000000000900480639d40fd2c116100765780639d40fd2c1461019b578063bcced1421461022c578063c48bfa331461027a578063e1152343146102f7578063f425442614610332576100a3565b806312065fe0146100a85780631815ce7d146100d35780636d26ec181461012457806379a18c361461012e575b600080fd5b3480156100b457600080fd5b506100bd61039b565b6040518082815260200191505060405180910390f35b3480156100df57600080fd5b50610122600480360360208110156100f657600080fd5b81019080803573ffffffffffffffffffffffffffffffffffffffff1690602001909291905050506103ba565b005b61012c6104a5565b005b34801561013a57600080fd5b50610199600480360360c081101561015157600080fd5b810190808035906020019092919080359060200190929190803590602001909291908035906020019092919080359060200190929190803590602001909291905050506104f5565b005b3480156101a757600080fd5b506101ea600480360360208110156101be57600080fd5b81019080803573ffffffffffffffffffffffffffffffffffffffff169060200190929190505050610612565b604051808273ffffffffffffffffffffffffffffffffffffffff1673ffffffffffffffffffffffffffffffffffffffff16815260200191505060405180910390f35b34801561023857600080fd5b50610241610645565b60405180878152602001868152602001858152602001848152602001838152602001828152602001965050505050505060405180910390f35b34801561028657600080fd5b506102b56004803603602081101561029d57600080fd5b8101908080351515906020019092919050505061066f565b604051808273ffffffffffffffffffffffffffffffffffffffff1673ffffffffffffffffffffffffffffffffffffffff16815260200191505060405180910390f35b34801561030357600080fd5b506103306004803603602081101561031a57600080fd5b81019080803590602001909291905050506108c8565b005b34801561033e57600080fd5b506103816004803603602081101561035557600080fd5b81019080803573ffffffffffffffffffffffffffffffffffffffff169060200190929190505050610bfe565b604051808215151515815260200191505060405180910390f35b60003073ffffffffffffffffffffffffffffffffffffffff1631905090565b3373ffffffffffffffffffffffffffffffffffffffff166000809054906101000a900473ffffffffffffffffffffffffffffffffffffffff1673ffffffffffffffffffffffffffffffffffffffff16141515610461576040517f08c379a0000000000000000000000000000000000000000000000000000000008152600401808060200182810382526022815260200180614fd36022913960400191505060405180910390fd5b80600160006101000a81548173ffffffffffffffffffffffffffffffffffffffff021916908373ffffffffffffffffffffffffffffffffffffffff16021790555050565b3373ffffffffffffffffffffffffffffffffffffffff167fe3abd548243c02b6b6adfaa9f4d721e545bef8c1e915fd1158695d8c128be0f5346040518082815260200191505060405180910390a2565b3373ffffffffffffffffffffffffffffffffffffffff166000809054906101000a900473ffffffffffffffffffffffffffffffffffffffff1673ffffffffffffffffffffffffffffffffffffffff1614151561059c576040517f08c379a0000000000000000000000000000000000000000000000000000000008152600401808060200182810382526026815260200180614ff56026913960400191505060405180910390fd5b6040518060c00160405280878152602001868152602001858152602001848152602001838152602001828152506004600082015181600001556020820151816001015560408201518160020155606082015181600301556080820151816004015560a08201518160050155905050505050505050565b60026020528060005260406000206000915054906101000a900473ffffffffffffffffffffffffffffffffffffffff1681565b60048060000154908060010154908060020154908060030154908060040154908060050154905086565b600080339050600081600160009054906101000a900473ffffffffffffffffffffffffffffffffffffffff1660046000015460046001015460046002015460046003015460048001546004600501548b6040516106cb90610c1e565b808a73ffffffffffffffffffffffffffffffffffffffff1673ffffffffffffffffffffffffffffffffffffffff1681526020018973ffffffffffffffffffffffffffffffffffffffff1673ffffffffffffffffffffffffffffffffffffffff168152602001888152602001878152602001868152602001858152602001848152602001838152602001821515151581526020019950505050505050505050604051809103906000f080158015610785573d6000803e3d6000fd5b50905080600260008473ffffffffffffffffffffffffffffffffffffffff1673ffffffffffffffffffffffffffffffffffffffff16815260200190815260200160002060006101000a81548173ffffffffffffffffffffffffffffffffffffffff021916908373ffffffffffffffffffffffffffffffffffffffff16021790555060008190506001600360008373ffffffffffffffffffffffffffffffffffffffff1673ffffffffffffffffffffffffffffffffffffffff16815260200190815260200160002060006101000a81548160ff0219169083151502179055508073ffffffffffffffffffffffffffffffffffffffff168373ffffffffffffffffffffffffffffffffffffffff167faf218eb9d453c327711e4c1e9521430f9b06c0250253f7c6c2b5668146450fbc60405160405180910390a3809350505050919050565b600360003373ffffffffffffffffffffffffffffffffffffffff1673ffffffffffffffffffffffffffffffffffffffff16815260200190815260200160002060009054906101000a900460ff16151561092057600080fd5b600033905060038081111561093157fe5b8173ffffffffffffffffffffffffffffffffffffffff1663c19d93fb6040518163ffffffff167c010000000000000000000000000000000000000000000000000000000002815260040160206040518083038186803b15801561099357600080fd5b505afa1580156109a7573d6000803e3d6000fd5b505050506040513d60208110156109bd57600080fd5b810190808051906020019092919050505060038111156109d957fe5b1415156109e557600080fd5b60008173ffffffffffffffffffffffffffffffffffffffff16639a7258096040518163ffffffff167c010000000000000000000000000000000000000000000000000000000002815260040160206040518083038186803b158015610a4957600080fd5b505afa158015610a5d573d6000803e3d6000fd5b505050506040513d6020811015610a7357600080fd5b8101908080519060200190929190505050905060006002811115610a9357fe5b816002811115610a9f57fe5b14151515610aac57600080fd5b60008273ffffffffffffffffffffffffffffffffffffffff16638e1af00b6040518163ffffffff167c010000000000000000000000000000000000000000000000000000000002815260040160206040518083038186803b158015610b1057600080fd5b505afa158015610b24573d6000803e3d6000fd5b505050506040513d6020811015610b3a57600080fd5b810190808051906020019092919050505090508073ffffffffffffffffffffffffffffffffffffffff166108fc859081150290604051600060405180830381858888f19350505050158015610b93573d6000803e3d6000fd5b508073ffffffffffffffffffffffffffffffffffffffff167f3f2f5fe0567c9168a1ad26baaad3611d102ec56a42a4beec0b817f7951a18c90858460405180838152602001826002811115610be457fe5b60ff1681526020019250505060405180910390a250505050565b60036020528060005260406000206000915054906101000a900460ff1681565b6143a780610c2c8339019056fe608060405260405161012080620043a783398101806040526101208110156200002757600080fd5b8101908080519060200190929190805190602001909291908051906020019092919080519060200190929190805190602001909291908051906020019092919080519060200190929190805190602001909291908051906020019092919050505060405180604001604052806000151581526020018a73ffffffffffffffffffffffffffffffffffffffff16815250600f60008201518160000160006101000a81548160ff02191690831515021790555060208201518160000160016101000a81548173ffffffffffffffffffffffffffffffffffffffff021916908373ffffffffffffffffffffffffffffffffffffffff16021790555090505033601060006101000a81548173ffffffffffffffffffffffffffffffffffffffff021916908373ffffffffffffffffffffffffffffffffffffffff1602179055506040518060c00160405280888152602001878152602001868152602001858152602001848152602001838152506015600082015181600001556020820151816001015560408201518160020155606082015181600301556080820151816004015560a0820151816005015590505087601160006101000a81548173ffffffffffffffffffffffffffffffffffffffff021916908373ffffffffffffffffffffffffffffffffffffffff1602179055506000601160146101000a81548160ff021916908360038111156200023257fe5b02179055506000601160156101000a81548160ff021916908360028111156200025757fe5b021790555080601b60006101000a81548160ff021916908315150217905550505050505050505050614118806200028f6000396000f3fe608060405260043610610147576000357c0100000000000000000000000000000000000000000000000000000000900480638e1af00b116100c8578063bcced1421161008c578063bcced14214610884578063c19d93fb146108d2578063ccf8b7d21461090b578063e4ef664f1461095c578063f8a8fd6d14610ac5578063f974e49114610af457610147565b80638e1af00b14610710578063904c5e071461076757806390ed1d12146107be5780639a72580914610820578063b69ef8a81461085957610147565b806338bbfa501161010f57806338bbfa50146102d457806366625bbd1461043d578063692e64aa146104545780636cf0729b1461052857806372e80d2e146105f057610147565b806317fd9ff8146101495780631865c57d146101535780631ea9a7bb146101cd57806327dc297e146101f857806329c08ba2146102ca575b005b610151610ba1565b005b34801561015f57600080fd5b50610168610faa565b6040518087600381111561017857fe5b60ff16815260200186600281111561018c57fe5b60ff16815260200185151515158152602001841515151581526020018315151515815260200182151515158152602001965050505050505060405180910390f35b3480156101d957600080fd5b506101e2611032565b6040518082815260200191505060405180910390f35b34801561020457600080fd5b506102c86004803603604081101561021b57600080fd5b81019080803590602001909291908035906020019064010000000081111561024257600080fd5b82018360208201111561025457600080fd5b8035906020019184600183028401116401000000008311171561027657600080fd5b91908080601f016020809104026020016040519081016040528093929190818152602001838380828437600081840152601f19601f820116905080830192505050505050509192919290505050611038565b005b6102d26114f5565b005b3480156102e057600080fd5b5061043b600480360360608110156102f757600080fd5b81019080803590602001909291908035906020019064010000000081111561031e57600080fd5b82018360208201111561033057600080fd5b8035906020019184600183028401116401000000008311171561035257600080fd5b91908080601f016020809104026020016040519081016040528093929190818152602001838380828437600081840152601f19601f820116905080830192505050505050509192919290803590602001906401000000008111156103b557600080fd5b8201836020820111156103c757600080fd5b803590602001918460018302840111640100000000831117156103e957600080fd5b91908080601f016020809104026020016040519081016040528093929190818152602001838380828437600081840152601f19601f8201169050808301925050505050505091929192905050506117cc565b005b34801561044957600080fd5b506104526117d1565b005b34801561046057600080fd5b506105266004803603604081101561047757600080fd5b810190808035906020019064010000000081111561049457600080fd5b8201836020820111156104a657600080fd5b803590602001918460018302840111640100000000831117156104c857600080fd5b91908080601f016020809104026020016040519081016040528093929190818152602001838380828437600081840152601f19601f820116905080830192505050505050509192919290803515159060200190929190505050611a82565b005b34801561053457600080fd5b506105ee6004803603602081101561054b57600080fd5b810190808035906020019064010000000081111561056857600080fd5b82018360208201111561057a57600080fd5b8035906020019184600183028401116401000000008311171561059c57600080fd5b91908080601f016020809104026020016040519081016040528093929190818152602001838380828437600081840152601f19601f820116905080830192505050505050509192919290505050611dc2565b005b3480156105fc57600080fd5b5061060561204d565b6040518080602001806020018781526020018615151515815260200185815260200184151515158152602001838103835289818151815260200191508051906020019080838360005b8381101561066957808201518184015260208101905061064e565b50505050905090810190601f1680156106965780820380516001836020036101000a031916815260200191505b50838103825288818151815260200191508051906020019080838360005b838110156106cf5780820151818401526020810190506106b4565b50505050905090810190601f1680156106fc5780820380516001836020036101000a031916815260200191505b509850505050505050505060405180910390f35b34801561071c57600080fd5b506107256121c1565b604051808273ffffffffffffffffffffffffffffffffffffffff1673ffffffffffffffffffffffffffffffffffffffff16815260200191505060405180910390f35b34801561077357600080fd5b5061077c6121ee565b604051808273ffffffffffffffffffffffffffffffffffffffff1673ffffffffffffffffffffffffffffffffffffffff16815260200191505060405180910390f35b3480156107ca57600080fd5b506107d3612214565b60405180831515151581526020018273ffffffffffffffffffffffffffffffffffffffff1673ffffffffffffffffffffffffffffffffffffffff1681526020019250505060405180910390f35b34801561082c57600080fd5b50610835612253565b6040518082600281111561084557fe5b60ff16815260200191505060405180910390f35b34801561086557600080fd5b5061086e612266565b6040518082815260200191505060405180910390f35b34801561089057600080fd5b5061089961226c565b60405180878152602001868152602001858152602001848152602001838152602001828152602001965050505050505060405180910390f35b3480156108de57600080fd5b506108e7612296565b604051808260038111156108f757fe5b60ff16815260200191505060405180910390f35b34801561091757600080fd5b5061095a6004803603602081101561092e57600080fd5b81019080803573ffffffffffffffffffffffffffffffffffffffff1690602001909291905050506122a9565b005b34801561096857600080fd5b50610ac36004803603606081101561097f57600080fd5b810190808035906020019064010000000081111561099c57600080fd5b8201836020820111156109ae57600080fd5b803590602001918460018302840111640100000000831117156109d057600080fd5b91908080601f016020809104026020016040519081016040528093929190818152602001838380828437600081840152601f19601f82011690508083019250505050505050919291929080359060200190640100000000811115610a3357600080fd5b820183602082011115610a4557600080fd5b80359060200191846001830284011164010000000083111715610a6757600080fd5b91908080601f016020809104026020016040519081016040528093929190818152602001838380828437600081840152601f19601f82011690508083019250505050505050919291929080359060200190929190505050612545565b005b348015610ad157600080fd5b50610ada612875565b604051808215151515815260200191505060405180910390f35b348015610b0057600080fd5b50610b09612888565b60405180806020018515151515815260200184815260200183151515158152602001828103825286818151815260200191508051906020019080838360005b83811015610b63578082015181840152602081019050610b48565b50505050905090810190601f168015610b905780820380516001836020036101000a031916815260200191505b509550505050505060405180910390f35b6001601160149054906101000a900460ff166003811115610bbe57fe5b816003811115610bca57fe5b141515610bd657600080fd5b600560030160009054906101000a900460ff161515610bf457600080fd5b601060009054906101000a900473ffffffffffffffffffffffffffffffffffffffff1673ffffffffffffffffffffffffffffffffffffffff16636d26ec186012546040518263ffffffff167c01000000000000000000000000000000000000000000000000000000000281526004016000604051808303818588803b158015610c7c57600080fd5b505af1158015610c90573d6000803e3d6000fd5b5050505050600b60010160009054906101000a900460ff1615610e9b57600560040154600b60020154036014819055506015600501546014541115610dca576003601160146101000a81548160ff02191690836003811115610cee57fe5b02179055506001601160156101000a81548160ff02191690836002811115610d1257fe5b0217905550601060009054906101000a900473ffffffffffffffffffffffffffffffffffffffff1673ffffffffffffffffffffffffffffffffffffffff1663e11523436015600101546040518263ffffffff167c010000000000000000000000000000000000000000000000000000000002815260040180828152602001915050600060405180830381600087803b158015610dad57600080fd5b505af1158015610dc1573d6000803e3d6000fd5b50505050610e96565b6003601160146101000a81548160ff02191690836003811115610de957fe5b02179055503073ffffffffffffffffffffffffffffffffffffffff16600f60000160019054906101000a900473ffffffffffffffffffffffffffffffffffffffff1673ffffffffffffffffffffffffffffffffffffffff167fa087868182df165dd528fe29d0c37abc963c4d2f768edcce807a6e33ca27620c601160149054906101000a900460ff1660405180826003811115610e8257fe5b60ff16815260200191505060405180910390a35b610fa7565b60156004015460056004015401421115610fa6576003601160146101000a81548160ff02191690836003811115610ece57fe5b02179055506002601160156101000a81548160ff02191690836002811115610ef257fe5b0217905550601060009054906101000a900473ffffffffffffffffffffffffffffffffffffffff1673ffffffffffffffffffffffffffffffffffffffff1663e11523436015600201546040518263ffffffff167c010000000000000000000000000000000000000000000000000000000002815260040180828152602001915050600060405180830381600087803b158015610f8d57600080fd5b505af1158015610fa1573d6000803e3d6000fd5b505050505b5b50565b600080600080600080601160149054906101000a900460ff16601160159054906101000a900460ff16600560030160009054906101000a900460ff166005800160009054906101000a900460ff16600b60010160009054906101000a900460ff16600b60030160009054906101000a900460ff16955095509550955095509550909192939495565b60145481565b611040612958565b8073ffffffffffffffffffffffffffffffffffffffff163373ffffffffffffffffffffffffffffffffffffffff161415156110e3576040517f08c379a00000000000000000000000000000000000000000000000000000000081526004018080602001828103825260168152602001807f53656e646572206e6f7420617574686f72697a65642e0000000000000000000081525060200191505060405180910390fd5b7f7827c89494fbfa76f2cf14970c16fa60cb959a9cf17e15d8aca06fe7d5735c2c826005600001600560010160405180806020018060200180602001848103845287818151815260200191508051906020019080838360005b8381101561115757808201518184015260208101905061113c565b50505050905090810190601f1680156111845780820380516001836020036101000a031916815260200191505b508481038352868181546001816001161561010002031660029004815260200191508054600181600116156101000203166002900480156112065780601f106111db57610100808354040283529160200191611206565b820191906000526020600020905b8154815290600101906020018083116111e957829003601f168201915b50508481038252858181546001816001161561010002031660029004815260200191508054600181600116156101000203166002900480156112895780601f1061125e57610100808354040283529160200191611289565b820191906000526020600020905b81548152906001019060200180831161126c57829003601f168201915b5050965050505050505060405180910390a16112da826040518060400160405280600281526020017f4c44000000000000000000000000000000000000000000000000000000000000815250612ccb565b156114e4576001600560030160006101000a81548160ff021916908315150217905550426005600401819055507f249dba65a1247f4183af474f75d43c5113c7143810db5ae29a63d5877a23d18b30600f60000160019054906101000a900473ffffffffffffffffffffffffffffffffffffffff1660056000016005600101604051808573ffffffffffffffffffffffffffffffffffffffff1673ffffffffffffffffffffffffffffffffffffffff1681526020018473ffffffffffffffffffffffffffffffffffffffff1673ffffffffffffffffffffffffffffffffffffffff168152602001806020018060200183810383528581815460018160011615610100020316600290048152602001915080546001816001161561010002031660029004801561144a5780601f1061141f5761010080835404028352916020019161144a565b820191906000526020600020905b81548152906001019060200180831161142d57829003601f168201915b50508381038252848181546001816001161561010002031660029004815260200191508054600181600116156101000203166002900480156114cd5780601f106114a2576101008083540402835291602001916114cd565b820191906000526020600020905b8154815290600101906020018083116114b057829003601f168201915b5050965050505050505060405180910390a16114f0565b6114ef610258612dbe565b5b505050565b600f60000160019054906101000a900473ffffffffffffffffffffffffffffffffffffffff168073ffffffffffffffffffffffffffffffffffffffff163373ffffffffffffffffffffffffffffffffffffffff161415156115be576040517f08c379a00000000000000000000000000000000000000000000000000000000081526004018080602001828103825260168152602001807f53656e646572206e6f7420617574686f72697a65642e0000000000000000000081525060200191505060405180910390fd5b6000601160149054906101000a900460ff1660038111156115db57fe5b8160038111156115e757fe5b1415156115f357600080fd5b6005800160009054906101000a900460ff161515611679576040517f08c379a000000000000000000000000000000000000000000000000000000000815260040180806020018281038252601b8152602001807f466c69676874206d75737420626520696e697469616c697a65642e000000000081525060200191505060405180910390fd5b601560000154341415156116f5576040517f08c379a000000000000000000000000000000000000000000000000000000000815260040180806020018281038252601e8152602001807f4d7573742073656e64206578616374207072656d69756d2076616c75652e000081525060200191505060405180910390fd5b346012600082825401925050819055506001601160146101000a81548160ff0219169083600381111561172457fe5b021790555042601381905550600f60000160019054906101000a900473ffffffffffffffffffffffffffffffffffffffff1673ffffffffffffffffffffffffffffffffffffffff167f5fdd29181a7664486e9ecb41a735daa339118be0ff050b24194e769fb87fb5d234601160149054906101000a900460ff16604051808381526020018260038111156117b457fe5b60ff1681526020019250505060405180910390a25050565b505050565b600f60000160019054906101000a900473ffffffffffffffffffffffffffffffffffffffff168073ffffffffffffffffffffffffffffffffffffffff163373ffffffffffffffffffffffffffffffffffffffff1614151561189a576040517f08c379a00000000000000000000000000000000000000000000000000000000081526004018080602001828103825260168152602001807f53656e646572206e6f7420617574686f72697a65642e0000000000000000000081525060200191505060405180910390fd5b6001601160149054906101000a900460ff1660038111156118b757fe5b8160038111156118c357fe5b1415156118cf57600080fd5b6015600301546013540142111515156118e757600080fd5b600f60000160009054906101000a900460ff16151515611952576040517f08c379a0000000000000000000000000000000000000000000000000000000008152600401808060200182810382526027815260200180613ffa6027913960400191505060405180910390fd5b600f60000160019054906101000a900473ffffffffffffffffffffffffffffffffffffffff1673ffffffffffffffffffffffffffffffffffffffff166108fc6012549081150290604051600060405180830381858888f193505050501580156119bf573d6000803e3d6000fd5b506002601160146101000a81548160ff021916908360038111156119df57fe5b0217905550600f60000160019054906101000a900473ffffffffffffffffffffffffffffffffffffffff1673ffffffffffffffffffffffffffffffffffffffff167ff367c15fef1232f4fb4794cd215616729c2812a152698e13ac4f377f4ce4fea0601254601160149054906101000a900460ff1660405180838152602001826003811115611a6a57fe5b60ff1681526020019250505060405180910390a25050565b601160009054906101000a900473ffffffffffffffffffffffffffffffffffffffff168073ffffffffffffffffffffffffffffffffffffffff163373ffffffffffffffffffffffffffffffffffffffff16141515611b48576040517f08c379a00000000000000000000000000000000000000000000000000000000081526004018080602001828103825260168152602001807f53656e646572206e6f7420617574686f72697a65642e0000000000000000000081525060200191505060405180910390fd5b6001601160149054906101000a900460ff166003811115611b6557fe5b816003811115611b7157fe5b141515611b7d57600080fd5b600560030160009054906101000a900460ff161515611b9b57600080fd5b611c4284600b6000018054600181600116156101000203166002900480601f016020809104026020016040519081016040528092919081815260200182805460018160011615610100020316600290048015611c385780601f10611c0d57610100808354040283529160200191611c38565b820191906000526020600020905b815481529060010190602001808311611c1b57829003601f168201915b5050505050612ccb565b1515611cb6576040517f08c379a00000000000000000000000000000000000000000000000000000000081526004018080602001828103825260188152602001807f4d7573742062652073616d65206c7567676167652069642e000000000000000081525060200191505060405180910390fd5b600b60010160009054906101000a900460ff16151515611cd557600080fd5b600115158315151415611dbc576001600b60010160006101000a81548160ff02191690831515021790555042600b600201819055507fdf6a6b4110aedd86bd8001eeb39e1be3987057c7307f7feed64b1520d964c08f84600b600201546040518080602001838152602001828103825284818151815260200191508051906020019080838360005b83811015611d78578082015181840152602081019050611d5d565b50505050905090810190601f168015611da55780820380516001836020036101000a031916815260200191505b50935050505060405180910390a1611dbb610ba1565b5b50505050565b601160009054906101000a900473ffffffffffffffffffffffffffffffffffffffff168073ffffffffffffffffffffffffffffffffffffffff163373ffffffffffffffffffffffffffffffffffffffff16141515611e88576040517f08c379a00000000000000000000000000000000000000000000000000000000081526004018080602001828103825260168152602001807f53656e646572206e6f7420617574686f72697a65642e0000000000000000000081525060200191505060405180910390fd5b6001601160149054906101000a900460ff166003811115611ea557fe5b816003811115611eb157fe5b141515611ebd57600080fd5b600b60030160009054906101000a900460ff16151515611edc57600080fd5b60405180608001604052808481526020016000151581526020016000815260200160011515815250600b6000820151816000019080519060200190611f22929190613e9e565b5060208201518160010160006101000a81548160ff0219169083151502179055506040820151816002015560608201518160030160006101000a81548160ff021916908315150217905550905050600f60000160019054906101000a900473ffffffffffffffffffffffffffffffffffffffff1673ffffffffffffffffffffffffffffffffffffffff167f09d47d634558854fc0b30c0b35f2824c71fb7e2cf320bb7856872c85b356d6b2846040518080602001828103825283818151815260200191508051906020019080838360005b8381101561200e578082015181840152602081019050611ff3565b50505050905090810190601f16801561203b5780820380516001836020036101000a031916815260200191505b509250505060405180910390a2505050565b6005806000018054600181600116156101000203166002900480601f0160208091040260200160405190810160405280929190818152602001828054600181600116156101000203166002900480156120e75780601f106120bc576101008083540402835291602001916120e7565b820191906000526020600020905b8154815290600101906020018083116120ca57829003601f168201915b505050505090806001018054600181600116156101000203166002900480601f0160208091040260200160405190810160405280929190818152602001828054600181600116156101000203166002900480156121855780601f1061215a57610100808354040283529160200191612185565b820191906000526020600020905b81548152906001019060200180831161216857829003601f168201915b5050505050908060020154908060030160009054906101000a900460ff16908060040154908060050160009054906101000a900460ff16905086565b6000600f60000160019054906101000a900473ffffffffffffffffffffffffffffffffffffffff16905090565b601160009054906101000a900473ffffffffffffffffffffffffffffffffffffffff1681565b600f8060000160009054906101000a900460ff16908060000160019054906101000a900473ffffffffffffffffffffffffffffffffffffffff16905082565b601160159054906101000a900460ff1681565b60125481565b60158060000154908060010154908060020154908060030154908060040154908060050154905086565b601160149054906101000a900460ff1681565b601160009054906101000a900473ffffffffffffffffffffffffffffffffffffffff168073ffffffffffffffffffffffffffffffffffffffff163373ffffffffffffffffffffffffffffffffffffffff1614151561236f576040517f08c379a00000000000000000000000000000000000000000000000000000000081526004018080602001828103825260168152602001807f53656e646572206e6f7420617574686f72697a65642e0000000000000000000081525060200191505060405180910390fd5b600f60000160019054906101000a900473ffffffffffffffffffffffffffffffffffffffff1673ffffffffffffffffffffffffffffffffffffffff168273ffffffffffffffffffffffffffffffffffffffff16141515612437576040517f08c379a00000000000000000000000000000000000000000000000000000000081526004018080602001828103825260208152602001807f4d75737420626520612076616c696420696e737572656520616464726573732e81525060200191505060405180910390fd5b600b60030160009054906101000a900460ff16151561245557600080fd5b600f60000160009054906101000a900460ff1615151561247457600080fd5b6001600f60000160006101000a81548160ff0219169083151502179055503073ffffffffffffffffffffffffffffffffffffffff16600f60000160019054906101000a900473ffffffffffffffffffffffffffffffffffffffff1673ffffffffffffffffffffffffffffffffffffffff167f2ef64ec756d323dae788c0c71ea5ab6cda9710774445f6df425d527987b14be660405160405180910390a3600042600560020154039050601b60009054906101000a900460ff161561253757600190505b61254081612dbe565b505050565b600f60000160019054906101000a900473ffffffffffffffffffffffffffffffffffffffff168073ffffffffffffffffffffffffffffffffffffffff163373ffffffffffffffffffffffffffffffffffffffff1614151561260e576040517f08c379a00000000000000000000000000000000000000000000000000000000081526004018080602001828103825260168152602001807f53656e646572206e6f7420617574686f72697a65642e0000000000000000000081525060200191505060405180910390fd5b6000601160149054906101000a900460ff16600381111561262b57fe5b81600381111561263757fe5b14151561264357600080fd5b6040518060c00160405280868152602001858152602001848152602001600015158152602001600081526020016001151581525060056000820151816000019080519060200190612695929190613e9e565b5060208201518160010190805190602001906126b2929190613e9e565b506040820151816002015560608201518160030160006101000a81548160ff0219169083151502179055506080820151816004015560a08201518160050160006101000a81548160ff0219169083151502179055509050503073ffffffffffffffffffffffffffffffffffffffff16600f60000160019054906101000a900473ffffffffffffffffffffffffffffffffffffffff1673ffffffffffffffffffffffffffffffffffffffff167f46fa72fc722023b2309ba28ee2a1ff0f734134f8c8249bf2e10902caae96d643878787604051808060200180602001848152602001838103835286818151815260200191508051906020019080838360005b838110156127cb5780820151818401526020810190506127b0565b50505050905090810190601f1680156127f85780820380516001836020036101000a031916815260200191505b50838103825285818151815260200191508051906020019080838360005b83811015612831578082015181840152602081019050612816565b50505050905090810190601f16801561285e5780820380516001836020036101000a031916815260200191505b509550505050505060405180910390a35050505050565b601b60009054906101000a900460ff1681565b600b806000018054600181600116156101000203166002900480601f0160208091040260200160405190810160405280929190818152602001828054600181600116156101000203166002900480156129225780601f106128f757610100808354040283529160200191612922565b820191906000526020600020905b81548152906001019060200180831161290557829003601f168201915b5050505050908060010160009054906101000a900460ff16908060020154908060030160009054906101000a900460ff16905084565b60008073ffffffffffffffffffffffffffffffffffffffff16600160009054906101000a900473ffffffffffffffffffffffffffffffffffffffff1673ffffffffffffffffffffffffffffffffffffffff1614806129e0575060006129de600160009054906101000a900473ffffffffffffffffffffffffffffffffffffffff16612ffe565b145b156129f1576129ef6000613009565b505b600160009054906101000a900473ffffffffffffffffffffffffffffffffffffffff1673ffffffffffffffffffffffffffffffffffffffff166338cc48316040518163ffffffff167c0100000000000000000000000000000000000000000000000000000000028152600401602060405180830381600087803b158015612a7757600080fd5b505af1158015612a8b573d6000803e3d6000fd5b505050506040513d6020811015612aa157600080fd5b810190808051906020019092919050505073ffffffffffffffffffffffffffffffffffffffff166000809054906101000a900473ffffffffffffffffffffffffffffffffffffffff1673ffffffffffffffffffffffffffffffffffffffff16141515612c0857600160009054906101000a900473ffffffffffffffffffffffffffffffffffffffff1673ffffffffffffffffffffffffffffffffffffffff166338cc48316040518163ffffffff167c0100000000000000000000000000000000000000000000000000000000028152600401602060405180830381600087803b158015612b8d57600080fd5b505af1158015612ba1573d6000803e3d6000fd5b505050506040513d6020811015612bb757600080fd5b81019080805190602001909291905050506000806101000a81548173ffffffffffffffffffffffffffffffffffffffff021916908373ffffffffffffffffffffffffffffffffffffffff1602179055505b6000809054906101000a900473ffffffffffffffffffffffffffffffffffffffff1673ffffffffffffffffffffffffffffffffffffffff1663c281d19e6040518163ffffffff167c010000000000000000000000000000000000000000000000000000000002815260040160206040518083038186803b158015612c8b57600080fd5b505afa158015612c9f573d6000803e3d6000fd5b505050506040513d6020811015612cb557600080fd5b8101908080519060200190929190505050905090565b6000816040516020018082805190602001908083835b602083101515612d065780518252602082019150602081019050602083039250612ce1565b6001836020036101000a03801982511681845116808217855250505050505090500191505060405160208183030381529060405280519060200120836040516020018082805190602001908083835b602083101515612d7a5780518252602082019150602081019050602083039250612d55565b6001836020036101000a0380198251168184511680821785525050505050509050019150506040516020818303038152906040528051906020012014905092915050565b6060612f6c6040518060c00160405280609081526020016140216090913960056000018054600181600116156101000203166002900480601f016020809104026020016040519081016040528092919081815260200182805460018160011615610100020316600290048015612e755780601f10612e4a57610100808354040283529160200191612e75565b820191906000526020600020905b815481529060010190602001808311612e5857829003601f168201915b50505050506040518060400160405280600681526020017f26646174653d000000000000000000000000000000000000000000000000000081525060056001018054600181600116156101000203166002900480601f016020809104026020016040519081016040528092919081815260200182805460018160011615610100020316600290048015612f495780601f10612f1e57610100808354040283529160200191612f49565b820191906000526020600020905b815481529060010190602001808311612f2c57829003601f168201915b50505050506040518060600160405280603c81526020016140b1603c913961301a565b9050612fae826040518060400160405280600381526020017f55524c000000000000000000000000000000000000000000000000000000000081525083613435565b507f621c2856e3b87f81235f8ac8a22bbb40a0142961960710d00b2b6c380902b57e604051808060200182810382526036815260200180613fc46036913960400191505060405180910390a15050565b6000813b9050919050565b60006130136139ee565b9050919050565b6060808690506060869050606086905060608690506060869050606081518351855187518951010101016040519080825280601f01601f1916602001820160405280156130765781602001600182028038833980820191505090505b509050606081905060008090506000809050600090505b88518110156131405788818151811015156130a457fe5b9060200101517f010000000000000000000000000000000000000000000000000000000000000090047f010000000000000000000000000000000000000000000000000000000000000002838380600101945081518110151561310357fe5b9060200101907effffffffffffffffffffffffffffffffffffffffffffffffffffffffffffff1916908160001a905350808060010191505061308d565b600090505b87518110156131f857878181518110151561315c57fe5b9060200101517f010000000000000000000000000000000000000000000000000000000000000090047f01000000000000000000000000000000000000000000000000000000000000000283838060010194508151811015156131bb57fe5b9060200101907effffffffffffffffffffffffffffffffffffffffffffffffffffffffffffff1916908160001a9053508080600101915050613145565b600090505b86518110156132b057868181518110151561321457fe5b9060200101517f010000000000000000000000000000000000000000000000000000000000000090047f010000000000000000000000000000000000000000000000000000000000000002838380600101945081518110151561327357fe5b9060200101907effffffffffffffffffffffffffffffffffffffffffffffffffffffffffffff1916908160001a90535080806001019150506131fd565b600090505b85518110156133685785818151811015156132cc57fe5b9060200101517f010000000000000000000000000000000000000000000000000000000000000090047f010000000000000000000000000000000000000000000000000000000000000002838380600101945081518110151561332b57fe5b9060200101907effffffffffffffffffffffffffffffffffffffffffffffffffffffffffffff1916908160001a90535080806001019150506132b5565b600090505b845181101561342057848181518110151561338457fe5b9060200101517f010000000000000000000000000000000000000000000000000000000000000090047f01000000000000000000000000000000000000000000000000000000000000000283838060010194508151811015156133e357fe5b9060200101907effffffffffffffffffffffffffffffffffffffffffffffffffffffffffffff1916908160001a905350808060010191505061336d565b82995050505050505050505095945050505050565b60008073ffffffffffffffffffffffffffffffffffffffff16600160009054906101000a900473ffffffffffffffffffffffffffffffffffffffff1673ffffffffffffffffffffffffffffffffffffffff1614806134bd575060006134bb600160009054906101000a900473ffffffffffffffffffffffffffffffffffffffff16612ffe565b145b156134ce576134cc6000613009565b505b600160009054906101000a900473ffffffffffffffffffffffffffffffffffffffff1673ffffffffffffffffffffffffffffffffffffffff166338cc48316040518163ffffffff167c0100000000000000000000000000000000000000000000000000000000028152600401602060405180830381600087803b15801561355457600080fd5b505af1158015613568573d6000803e3d6000fd5b505050506040513d602081101561357e57600080fd5b810190808051906020019092919050505073ffffffffffffffffffffffffffffffffffffffff166000809054906101000a900473ffffffffffffffffffffffffffffffffffffffff1673ffffffffffffffffffffffffffffffffffffffff161415156136e557600160009054906101000a900473ffffffffffffffffffffffffffffffffffffffff1673ffffffffffffffffffffffffffffffffffffffff166338cc48316040518163ffffffff167c0100000000000000000000000000000000000000000000000000000000028152600401602060405180830381600087803b15801561366a57600080fd5b505af115801561367e573d6000803e3d6000fd5b505050506040513d602081101561369457600080fd5b81019080805190602001909291905050506000806101000a81548173ffffffffffffffffffffffffffffffffffffffff021916908373ffffffffffffffffffffffffffffffffffffffff1602179055505b60008060009054906101000a900473ffffffffffffffffffffffffffffffffffffffff1673ffffffffffffffffffffffffffffffffffffffff1663524f3889856040518263ffffffff167c01000000000000000000000000000000000000000000000000000000000281526004018080602001828103825283818151815260200191508051906020019080838360005b83811015613790578082015181840152602081019050613775565b50505050905090810190601f1680156137bd5780820380516001836020036101000a031916815260200191505b5092505050602060405180830381600087803b1580156137dc57600080fd5b505af11580156137f0573d6000803e3d6000fd5b505050506040513d602081101561380657600080fd5b8101908080519060200190929190505050905062030d403a02670de0b6b3a76400000181111561383d5760006001029150506139e7565b6000809054906101000a900473ffffffffffffffffffffffffffffffffffffffff1673ffffffffffffffffffffffffffffffffffffffff1663adf59f99828787876040518563ffffffff167c0100000000000000000000000000000000000000000000000000000000028152600401808481526020018060200180602001838103835285818151815260200191508051906020019080838360005b838110156138f35780820151818401526020810190506138d8565b50505050905090810190601f1680156139205780820380516001836020036101000a031916815260200191505b50838103825284818151815260200191508051906020019080838360005b8381101561395957808201518184015260208101905061393e565b50505050905090810190601f1680156139865780820380516001836020036101000a031916815260200191505b50955050505050506020604051808303818588803b1580156139a757600080fd5b505af11580156139bb573d6000803e3d6000fd5b50505050506040513d60208110156139d257600080fd5b81019080805190602001909291905050509150505b9392505050565b600080613a0e731d3b2638a7cc9f2cb3d298a3da7a90b67e5506ed612ffe565b1115613ab057731d3b2638a7cc9f2cb3d298a3da7a90b67e5506ed600160006101000a81548173ffffffffffffffffffffffffffffffffffffffff021916908373ffffffffffffffffffffffffffffffffffffffff160217905550613aa76040518060400160405280600b81526020017f6574685f6d61696e6e6574000000000000000000000000000000000000000000815250613e84565b60019050613e81565b6000613acf73c03a2615d5efaf5f49f60b7bb6583eaec212fdf1612ffe565b1115613b715773c03a2615d5efaf5f49f60b7bb6583eaec212fdf1600160006101000a81548173ffffffffffffffffffffffffffffffffffffffff021916908373ffffffffffffffffffffffffffffffffffffffff160217905550613b686040518060400160405280600c81526020017f6574685f726f707374656e330000000000000000000000000000000000000000815250613e84565b60019050613e81565b6000613b9073b7a07bcf2ba2f2703b24c0691b5278999c59ac7e612ffe565b1115613c325773b7a07bcf2ba2f2703b24c0691b5278999c59ac7e600160006101000a81548173ffffffffffffffffffffffffffffffffffffffff021916908373ffffffffffffffffffffffffffffffffffffffff160217905550613c296040518060400160405280600981526020017f6574685f6b6f76616e0000000000000000000000000000000000000000000000815250613e84565b60019050613e81565b6000613c5173146500cfd35b22e4a392fe0adc06de1a1368ed48612ffe565b1115613cf35773146500cfd35b22e4a392fe0adc06de1a1368ed48600160006101000a81548173ffffffffffffffffffffffffffffffffffffffff021916908373ffffffffffffffffffffffffffffffffffffffff160217905550613cea6040518060400160405280600b81526020017f6574685f72696e6b656279000000000000000000000000000000000000000000815250613e84565b60019050613e81565b6000613d12736f485c8bf6fc43ea212e93bbf8ce046c7f1cb475612ffe565b1115613d7657736f485c8bf6fc43ea212e93bbf8ce046c7f1cb475600160006101000a81548173ffffffffffffffffffffffffffffffffffffffff021916908373ffffffffffffffffffffffffffffffffffffffff16021790555060019050613e81565b6000613d957320e12a1f859b3feae5fb2a0a32c18f5a65555bbf612ffe565b1115613df9577320e12a1f859b3feae5fb2a0a32c18f5a65555bbf600160006101000a81548173ffffffffffffffffffffffffffffffffffffffff021916908373ffffffffffffffffffffffffffffffffffffffff16021790555060019050613e81565b6000613e187351efaf4c8b3c9afbd5ab9f4bbc82784ab6ef8faa612ffe565b1115613e7c577351efaf4c8b3c9afbd5ab9f4bbc82784ab6ef8faa600160006101000a81548173ffffffffffffffffffffffffffffffffffffffff021916908373ffffffffffffffffffffffffffffffffffffffff16021790555060019050613e81565b600090505b90565b8060029080519060200190613e9a929190613f1e565b5050565b828054600181600116156101000203166002900490600052602060002090601f016020900481019282601f10613edf57805160ff1916838001178555613f0d565b82800160010185558215613f0d579182015b82811115613f0c578251825591602001919060010190613ef1565b5b509050613f1a9190613f9e565b5090565b828054600181600116156101000203166002900490600052602060002090601f016020900481019282601f10613f5f57805160ff1916838001178555613f8d565b82800160010185558215613f8d579182015b82811115613f8c578251825591602001919060010190613f71565b5b509050613f9a9190613f9e565b5090565b613fc091905b80821115613fbc576000816000905550600101613fa4565b5090565b9056fe4f7261636c697a65207175657279207761732073656e742c207374616e64696e6720627920666f722074686520616e737765722e2e2e496e7375726565206d757374206e6f742068617665206265656e20626f6172646564207965742e6a736f6e2868747470733a2f2f6f7263616c697a652d6261636b656e642d746573742e6865726f6b756170702e636f6d2f666c696768743f6170695f746f6b656e3d6230336262383430626237623866653331653062363965613863323461616236343934353063306161376665323236353663626631653938306131623732396126666c696768746e756d6265723d292e646174612e466c696768745374617475735265736f757263652e466c69676874732e466c696768742e466c696768745374617475732e436f6465a165627a7a72305820134abc1daa5d681c17259f74efb818f5b374aa1cd2aae4ab96e5a81807f8595500294f776e6572206d757374206368616e6765206261636b656e6420616464726573732e4f776e6572206d757374206368616e676520636f6e747261637420636f6e646974696f6e732ea165627a7a72305820ebee4e438aa7ec11667fbbb9731b01b29fcdeb32b2a2933ec89984f1378408400029",
  "source": "pragma solidity 0.5.5;\nimport \"./LuggageInsuranceContract.sol\";\n\ncontract InsuranceContractManager {\n    struct InsuranceContractConditions {\n        uint premium;\n        uint amountDelay;\n        uint amountLost;\n        uint revokeTimeLimit;\n        uint timeLimitLuggageLost;\n        uint timeLimitForPayOut;\n    }\n\n    event CreatedContract(address indexed addressInsuree, address indexed addressContract);\n    event SendPayout(address indexed addressInsuree, uint amount, LuggageInsuranceContract.ClaimState claimState);\n    event ReceivedMoney(address indexed sender, uint amount);\n\n    address owner;\n    address addressBackend;\n    mapping(address => LuggageInsuranceContract) public insureeToContractMapping;\n    mapping(address => bool) public initializedContracts;\n    InsuranceContractConditions public insuranceContractConditions;\n\n    constructor(\n        address _addressBackend,\n        uint premium,\n        uint amountDelay,\n        uint amountLost,\n        uint revokeTimeLimit,\n        uint timeLimitLuggageLost,\n        uint timeLimitForPayOut\n    ) public {\n        owner = msg.sender;\n        addressBackend = _addressBackend;\n        insuranceContractConditions = InsuranceContractConditions(\n            premium,\n            amountDelay,\n            amountLost,\n            revokeTimeLimit,\n            timeLimitLuggageLost,\n            timeLimitForPayOut\n        );\n    }\n\n    function setContractConditions(\n        uint premium,\n        uint amountDelay,\n        uint amountLost,\n        uint revokeTimeLimit,\n        uint timeLimitLuggageLost,\n        uint timeLimitForPayOut\n    ) public {\n        require(owner == msg.sender, 'Owner must change contract conditions.');\n        insuranceContractConditions = InsuranceContractConditions(\n            premium,\n            amountDelay,\n            amountLost,\n            revokeTimeLimit,\n            timeLimitLuggageLost,\n            timeLimitForPayOut\n        );\n    }\n    \n    function setBackendAddress(address _addressBackend) public {\n        require(owner == msg.sender, 'Owner must change backend address.');\n        addressBackend = _addressBackend;\n    }\n\n    function createContract(bool test) public returns(address) {\n        address payable addressInsuree = msg.sender;\n        LuggageInsuranceContract insuranceContract = new LuggageInsuranceContract(\n            addressInsuree,\n            addressBackend,\n            insuranceContractConditions.premium,\n            insuranceContractConditions.amountDelay,\n            insuranceContractConditions.amountLost,\n            insuranceContractConditions.revokeTimeLimit,\n            insuranceContractConditions.timeLimitLuggageLost,\n            insuranceContractConditions.timeLimitForPayOut,\n            test\n        );\n        insureeToContractMapping[addressInsuree] = insuranceContract;\n        \n        address addressInsuranceContract = address(insuranceContract);\n        initializedContracts[addressInsuranceContract] = true;\n        emit CreatedContract(addressInsuree, addressInsuranceContract);\n        return addressInsuranceContract;\n    }\n\n    function payout(uint amountToPay) public {\n        require(initializedContracts[msg.sender]);\n        LuggageInsuranceContract luggageInsuranceContract = LuggageInsuranceContract(msg.sender);\n        require(luggageInsuranceContract.state() == LuggageInsuranceContract.State.closed);\n        LuggageInsuranceContract.ClaimState claimState = luggageInsuranceContract.claimState();\n        require(claimState != LuggageInsuranceContract.ClaimState.none);\n        address payable addressInsuree = luggageInsuranceContract.getAddressInsuree();\n        addressInsuree.transfer(amountToPay);\n        emit SendPayout(addressInsuree,  amountToPay, claimState);\n    }\n\n    function getBalance() public view returns(uint) {\n        return address(this).balance;\n    }\n\n    function receiveMoney() external payable {\n        emit ReceivedMoney(msg.sender, msg.value);\n    }\n}\n",
  "sourcePath": "/Users/anastasia.reimer/code/luggageInsuranceContract/contracts/InsuranceContractManager.sol",
  "compiler": {
    "name": "solc",
    "version": "0.5.5+commit.47a71e8f.Emscripten.clang"
  },
  "schemaVersion": "3.0.2",
  "updatedAt": "2019-03-23T20:11:03.631Z",
  "devdoc": {
    "methods": {}
  },
  "userdoc": {
    "methods": {}
  }
}