{
  "contractName": "LuggageInsuranceContract",
  "abi": [
    {
      "constant": true,
      "inputs": [],
      "name": "timeDifference",
      "outputs": [
        {
          "name": "",
          "type": "uint256"
        }
      ],
      "payable": false,
      "stateMutability": "view",
      "type": "function"
    },
    {
      "constant": true,
      "inputs": [],
      "name": "flightStatus",
      "outputs": [
        {
          "name": "",
          "type": "string"
        }
      ],
      "payable": false,
      "stateMutability": "view",
      "type": "function"
    },
    {
      "constant": true,
      "inputs": [],
      "name": "flight",
      "outputs": [
        {
          "name": "flightNumber",
          "type": "string"
        },
        {
          "name": "departureDay",
          "type": "string"
        },
        {
          "name": "plannedArrival",
          "type": "uint256"
        },
        {
          "name": "landed",
          "type": "bool"
        },
        {
          "name": "timeLanded",
          "type": "uint256"
        },
        {
          "name": "initialized",
          "type": "bool"
        }
      ],
      "payable": false,
      "stateMutability": "view",
      "type": "function"
    },
    {
      "constant": true,
      "inputs": [],
      "name": "addressBackend",
      "outputs": [
        {
          "name": "",
          "type": "address"
        }
      ],
      "payable": false,
      "stateMutability": "view",
      "type": "function"
    },
    {
      "constant": true,
      "inputs": [],
      "name": "insuree",
      "outputs": [
        {
          "name": "boarded",
          "type": "bool"
        },
        {
          "name": "addressInsuree",
          "type": "address"
        }
      ],
      "payable": false,
      "stateMutability": "view",
      "type": "function"
    },
    {
      "constant": true,
      "inputs": [],
      "name": "claimState",
      "outputs": [
        {
          "name": "",
          "type": "uint8"
        }
      ],
      "payable": false,
      "stateMutability": "view",
      "type": "function"
    },
    {
      "constant": true,
      "inputs": [],
      "name": "balance",
      "outputs": [
        {
          "name": "",
          "type": "uint256"
        }
      ],
      "payable": false,
      "stateMutability": "view",
      "type": "function"
    },
    {
      "constant": true,
      "inputs": [],
      "name": "insuranceContractConditions",
      "outputs": [
        {
          "name": "premium",
          "type": "uint256"
        },
        {
          "name": "amountDelay",
          "type": "uint256"
        },
        {
          "name": "amountLost",
          "type": "uint256"
        },
        {
          "name": "revokeTimeLimit",
          "type": "uint256"
        },
        {
          "name": "timeLimitLuggageLost",
          "type": "uint256"
        },
        {
          "name": "timeLimitForPayOut",
          "type": "uint256"
        }
      ],
      "payable": false,
      "stateMutability": "view",
      "type": "function"
    },
    {
      "constant": true,
      "inputs": [],
      "name": "state",
      "outputs": [
        {
          "name": "",
          "type": "uint8"
        }
      ],
      "payable": false,
      "stateMutability": "view",
      "type": "function"
    },
    {
      "constant": true,
      "inputs": [],
      "name": "addressOracle",
      "outputs": [
        {
          "name": "",
          "type": "address"
        }
      ],
      "payable": false,
      "stateMutability": "view",
      "type": "function"
    },
    {
      "constant": true,
      "inputs": [],
      "name": "test",
      "outputs": [
        {
          "name": "",
          "type": "bool"
        }
      ],
      "payable": false,
      "stateMutability": "view",
      "type": "function"
    },
    {
      "constant": true,
      "inputs": [],
      "name": "luggage",
      "outputs": [
        {
          "name": "id",
          "type": "string"
        },
        {
          "name": "onBelt",
          "type": "bool"
        },
        {
          "name": "timeOnBelt",
          "type": "uint256"
        },
        {
          "name": "initialized",
          "type": "bool"
        }
      ],
      "payable": false,
      "stateMutability": "view",
      "type": "function"
    },
    {
      "inputs": [
        {
          "name": "addressInsuree",
          "type": "address"
        },
        {
          "name": "backend",
          "type": "address"
        },
        {
          "name": "premium",
          "type": "uint256"
        },
        {
          "name": "amountDelay",
          "type": "uint256"
        },
        {
          "name": "amountLost",
          "type": "uint256"
        },
        {
          "name": "revokeTimeLimit",
          "type": "uint256"
        },
        {
          "name": "timeLimitLuggageLost",
          "type": "uint256"
        },
        {
          "name": "timeLimitForPayOut",
          "type": "uint256"
        },
        {
          "name": "isTest",
          "type": "bool"
        }
      ],
      "payable": true,
      "stateMutability": "payable",
      "type": "constructor"
    },
    {
      "payable": true,
      "stateMutability": "payable",
      "type": "fallback"
    },
    {
      "anonymous": false,
      "inputs": [
        {
          "indexed": true,
          "name": "_addressInsuree",
          "type": "address"
        },
        {
          "indexed": false,
          "name": "_state",
          "type": "uint8"
        }
      ],
      "name": "ContractCreated",
      "type": "event"
    },
    {
      "anonymous": false,
      "inputs": [
        {
          "indexed": false,
          "name": "_premium",
          "type": "uint256"
        },
        {
          "indexed": false,
          "name": "_state",
          "type": "uint8"
        }
      ],
      "name": "PremiumPaid",
      "type": "event"
    },
    {
      "anonymous": false,
      "inputs": [
        {
          "indexed": false,
          "name": "_amount",
          "type": "uint256"
        },
        {
          "indexed": false,
          "name": "_addressInsuree",
          "type": "address"
        },
        {
          "indexed": false,
          "name": "_state",
          "type": "uint8"
        }
      ],
      "name": "InsuranceAmountPaid",
      "type": "event"
    },
    {
      "anonymous": false,
      "inputs": [
        {
          "indexed": false,
          "name": "_state",
          "type": "uint8"
        }
      ],
      "name": "NoClaim",
      "type": "event"
    },
    {
      "anonymous": false,
      "inputs": [
        {
          "indexed": false,
          "name": "description",
          "type": "string"
        }
      ],
      "name": "LogNewOraclizeQuery",
      "type": "event"
    },
    {
      "anonymous": false,
      "inputs": [
        {
          "indexed": false,
          "name": "status",
          "type": "string"
        }
      ],
      "name": "LogFlightStatus",
      "type": "event"
    },
    {
      "anonymous": false,
      "inputs": [
        {
          "indexed": false,
          "name": "addressLuggageContract",
          "type": "address"
        },
        {
          "indexed": false,
          "name": "addressInsuree",
          "type": "address"
        }
      ],
      "name": "FlightLanded",
      "type": "event"
    },
    {
      "constant": false,
      "inputs": [
        {
          "name": "flightNumber",
          "type": "string"
        },
        {
          "name": "departureDay",
          "type": "string"
        },
        {
          "name": "plannedArrival",
          "type": "uint256"
        }
      ],
      "name": "setFlight",
      "outputs": [],
      "payable": false,
      "stateMutability": "nonpayable",
      "type": "function"
    },
    {
      "constant": false,
      "inputs": [],
      "name": "payPremium",
      "outputs": [],
      "payable": true,
      "stateMutability": "payable",
      "type": "function"
    },
    {
      "constant": false,
      "inputs": [
        {
          "name": "_luggageID",
          "type": "string"
        }
      ],
      "name": "checkInLuggage",
      "outputs": [],
      "payable": false,
      "stateMutability": "nonpayable",
      "type": "function"
    },
    {
      "constant": false,
      "inputs": [],
      "name": "revokeContract",
      "outputs": [],
      "payable": false,
      "stateMutability": "nonpayable",
      "type": "function"
    },
    {
      "constant": false,
      "inputs": [
        {
          "name": "_addressInsuree",
          "type": "address"
        }
      ],
      "name": "boardingPassenger",
      "outputs": [],
      "payable": false,
      "stateMutability": "nonpayable",
      "type": "function"
    },
    {
      "constant": false,
      "inputs": [
        {
          "name": "myid",
          "type": "bytes32"
        },
        {
          "name": "result",
          "type": "string"
        }
      ],
      "name": "__callback",
      "outputs": [],
      "payable": false,
      "stateMutability": "nonpayable",
      "type": "function"
    },
    {
      "constant": false,
      "inputs": [
        {
          "name": "_myid",
          "type": "bytes32"
        },
        {
          "name": "_result",
          "type": "string"
        },
        {
          "name": "_proof",
          "type": "bytes"
        }
      ],
      "name": "__callback",
      "outputs": [],
      "payable": false,
      "stateMutability": "nonpayable",
      "type": "function"
    },
    {
      "constant": false,
      "inputs": [
        {
          "name": "_luggageID",
          "type": "string"
        },
        {
          "name": "_onBelt",
          "type": "bool"
        }
      ],
      "name": "setLuggageState",
      "outputs": [],
      "payable": false,
      "stateMutability": "nonpayable",
      "type": "function"
    },
    {
      "constant": false,
      "inputs": [],
      "name": "checkClaim",
      "outputs": [],
      "payable": true,
      "stateMutability": "payable",
      "type": "function"
    },
    {
      "constant": true,
      "inputs": [],
      "name": "getState",
      "outputs": [
        {
          "name": "",
          "type": "uint8"
        },
        {
          "name": "",
          "type": "bool"
        },
        {
          "name": "",
          "type": "bool"
        },
        {
          "name": "",
          "type": "bool"
        },
        {
          "name": "",
          "type": "bool"
        }
      ],
      "payable": false,
      "stateMutability": "view",
      "type": "function"
    },
    {
      "constant": true,
      "inputs": [],
      "name": "getAddressInsuree",
      "outputs": [
        {
          "name": "",
          "type": "address"
        }
      ],
      "payable": false,
      "stateMutability": "view",
      "type": "function"
    }
  ],
  "bytecode": "0x60806040526040516101208062004148833981018060405261012081101561002657600080fd5b8101908080519060200190929190805190602001909291908051906020019092919080519060200190929190805190602001909291908051906020019092919080519060200190929190805190602001909291908051906020019092919050505060405180604001604052806000151581526020018a73ffffffffffffffffffffffffffffffffffffffff16815250600f60008201518160000160006101000a81548160ff02191690831515021790555060208201518160000160016101000a81548173ffffffffffffffffffffffffffffffffffffffff021916908373ffffffffffffffffffffffffffffffffffffffff16021790555090505033601060006101000a81548173ffffffffffffffffffffffffffffffffffffffff021916908373ffffffffffffffffffffffffffffffffffffffff1602179055506040518060c00160405280888152602001878152602001868152602001858152602001848152602001838152506016600082015181600001556020820151816001015560408201518160020155606082015181600301556080820151816004015560a0820151816005015590505087601260006101000a81548173ffffffffffffffffffffffffffffffffffffffff021916908373ffffffffffffffffffffffffffffffffffffffff16021790555087601160006101000a81548173ffffffffffffffffffffffffffffffffffffffff021916908373ffffffffffffffffffffffffffffffffffffffff1602179055506000601260146101000a81548160ff0219169083600381111561027157fe5b02179055506000601260156101000a81548160ff0219169083600281111561029557fe5b021790555080601c60006101000a81548160ff021916908315150217905550505050505050505050613e7b80620002cd6000396000f3fe60806040526004361061015d576000357c0100000000000000000000000000000000000000000000000000000000900480638e1af00b116100d3578063c19d93fb1161008c578063c19d93fb14610963578063ccf8b7d21461099c578063e4ef664f146109ed578063f5159b6114610b56578063f8a8fd6d14610bad578063f974e49114610bdc5761015d565b80638e1af00b146107a1578063904c5e07146107f857806390ed1d121461084f5780639a725809146108b1578063b69ef8a8146108ea578063bcced142146109155761015d565b806338bbfa501161012557806338bbfa50146102d557806366625bbd1461043e578063692e64aa146104555780636cf0729b146105295780636f09caed146105f157806372e80d2e146106815761015d565b806317fd9ff81461015f5780631865c57d146101695780631ea9a7bb146101ce57806327dc297e146101f957806329c08ba2146102cb575b005b610167610c89565b005b34801561017557600080fd5b5061017e6111b3565b6040518086600381111561018e57fe5b60ff168152602001851515151581526020018415151515815260200183151515158152602001821515151581526020019550505050505060405180910390f35b3480156101da57600080fd5b506101e3611227565b6040518082815260200191505060405180910390f35b34801561020557600080fd5b506102c96004803603604081101561021c57600080fd5b81019080803590602001909291908035906020019064010000000081111561024357600080fd5b82018360208201111561025557600080fd5b8035906020019184600183028401116401000000008311171561027757600080fd5b91908080601f016020809104026020016040519081016040528093929190818152602001838380828437600081840152601f19601f82011690508083019250505050505050919291929050505061122d565b005b6102d3611563565b005b3480156102e157600080fd5b5061043c600480360360608110156102f857600080fd5b81019080803590602001909291908035906020019064010000000081111561031f57600080fd5b82018360208201111561033157600080fd5b8035906020019184600183028401116401000000008311171561035357600080fd5b91908080601f016020809104026020016040519081016040528093929190818152602001838380828437600081840152601f19601f820116905080830192505050505050509192919290803590602001906401000000008111156103b657600080fd5b8201836020820111156103c857600080fd5b803590602001918460018302840111640100000000831117156103ea57600080fd5b91908080601f016020809104026020016040519081016040528093929190818152602001838380828437600081840152601f19601f8201169050808301925050505050505091929192905050506117fe565b005b34801561044a57600080fd5b50610453611803565b005b34801561046157600080fd5b506105276004803603604081101561047857600080fd5b810190808035906020019064010000000081111561049557600080fd5b8201836020820111156104a757600080fd5b803590602001918460018302840111640100000000831117156104c957600080fd5b91908080601f016020809104026020016040519081016040528093929190818152602001838380828437600081840152601f19601f820116905080830192505050505050509192919290803515159060200190929190505050611a1a565b005b34801561053557600080fd5b506105ef6004803603602081101561054c57600080fd5b810190808035906020019064010000000081111561056957600080fd5b82018360208201111561057b57600080fd5b8035906020019184600183028401116401000000008311171561059d57600080fd5b91908080601f016020809104026020016040519081016040528093929190818152602001838380828437600081840152601f19601f820116905080830192505050505050509192919290505050611cb1565b005b3480156105fd57600080fd5b50610606611e64565b6040518080602001828103825283818151815260200191508051906020019080838360005b8381101561064657808201518184015260208101905061062b565b50505050905090810190601f1680156106735780820380516001836020036101000a031916815260200191505b509250505060405180910390f35b34801561068d57600080fd5b50610696611f02565b6040518080602001806020018781526020018615151515815260200185815260200184151515158152602001838103835289818151815260200191508051906020019080838360005b838110156106fa5780820151818401526020810190506106df565b50505050905090810190601f1680156107275780820380516001836020036101000a031916815260200191505b50838103825288818151815260200191508051906020019080838360005b83811015610760578082015181840152602081019050610745565b50505050905090810190601f16801561078d5780820380516001836020036101000a031916815260200191505b509850505050505050505060405180910390f35b3480156107ad57600080fd5b506107b6612076565b604051808273ffffffffffffffffffffffffffffffffffffffff1673ffffffffffffffffffffffffffffffffffffffff16815260200191505060405180910390f35b34801561080457600080fd5b5061080d6120a3565b604051808273ffffffffffffffffffffffffffffffffffffffff1673ffffffffffffffffffffffffffffffffffffffff16815260200191505060405180910390f35b34801561085b57600080fd5b506108646120c9565b60405180831515151581526020018273ffffffffffffffffffffffffffffffffffffffff1673ffffffffffffffffffffffffffffffffffffffff1681526020019250505060405180910390f35b3480156108bd57600080fd5b506108c6612108565b604051808260028111156108d657fe5b60ff16815260200191505060405180910390f35b3480156108f657600080fd5b506108ff61211b565b6040518082815260200191505060405180910390f35b34801561092157600080fd5b5061092a612121565b60405180878152602001868152602001858152602001848152602001838152602001828152602001965050505050505060405180910390f35b34801561096f57600080fd5b5061097861214b565b6040518082600381111561098857fe5b60ff16815260200191505060405180910390f35b3480156109a857600080fd5b506109eb600480360360208110156109bf57600080fd5b81019080803573ffffffffffffffffffffffffffffffffffffffff16906020019092919050505061215e565b005b3480156109f957600080fd5b50610b5460048036036060811015610a1057600080fd5b8101908080359060200190640100000000811115610a2d57600080fd5b820183602082011115610a3f57600080fd5b80359060200191846001830284011164010000000083111715610a6157600080fd5b91908080601f016020809104026020016040519081016040528093929190818152602001838380828437600081840152601f19601f82011690508083019250505050505050919291929080359060200190640100000000811115610ac457600080fd5b820183602082011115610ad657600080fd5b80359060200191846001830284011164010000000083111715610af857600080fd5b91908080601f016020809104026020016040519081016040528093929190818152602001838380828437600081840152601f19601f8201169050808301925050505050505091929192908035906020019092919050505061237b565b005b348015610b6257600080fd5b50610b6b6125b2565b604051808273ffffffffffffffffffffffffffffffffffffffff1673ffffffffffffffffffffffffffffffffffffffff16815260200191505060405180910390f35b348015610bb957600080fd5b50610bc26125d8565b604051808215151515815260200191505060405180910390f35b348015610be857600080fd5b50610bf16125eb565b60405180806020018515151515815260200184815260200183151515158152602001828103825286818151815260200191508051906020019080838360005b83811015610c4b578082015181840152602081019050610c30565b50505050905090810190601f168015610c785780820380516001836020036101000a031916815260200191505b509550505050505060405180910390f35b6001601260149054906101000a900460ff166003811115610ca657fe5b816003811115610cb257fe5b141515610cbe57600080fd5b600560030160009054906101000a900460ff161515610cdc57600080fd5b601060009054906101000a900473ffffffffffffffffffffffffffffffffffffffff1673ffffffffffffffffffffffffffffffffffffffff16636d26ec186013546040518263ffffffff167c01000000000000000000000000000000000000000000000000000000000281526004016000604051808303818588803b158015610d6457600080fd5b505af1158015610d78573d6000803e3d6000fd5b5050505050600b60010160009054906101000a900460ff1615610fea57600560040154600b60020154036015819055506016600501546015541115610f6c576003601260146101000a81548160ff02191690836003811115610dd657fe5b02179055506001601260156101000a81548160ff02191690836002811115610dfa57fe5b0217905550601060009054906101000a900473ffffffffffffffffffffffffffffffffffffffff1673ffffffffffffffffffffffffffffffffffffffff1663e11523436016600101546040518263ffffffff167c010000000000000000000000000000000000000000000000000000000002815260040180828152602001915050600060405180830381600087803b158015610e9557600080fd5b505af1158015610ea9573d6000803e3d6000fd5b505050507ff1514e4ffdad910f4b453b7d21efcbbdfbae79984f038bcefa7cc193b4d8af7c601660010154600f60000160019054906101000a900473ffffffffffffffffffffffffffffffffffffffff16601260149054906101000a900460ff16604051808481526020018373ffffffffffffffffffffffffffffffffffffffff1673ffffffffffffffffffffffffffffffffffffffff168152602001826003811115610f5257fe5b60ff168152602001935050505060405180910390a1610fe5565b6003601260146101000a81548160ff02191690836003811115610f8b57fe5b02179055507fe6b6cdab431a62cabc34e815ea9dc1491ce23dca0816dc79a7e12472eea64a5b601260149054906101000a900460ff1660405180826003811115610fd157fe5b60ff16815260200191505060405180910390a15b6111b0565b601660040154600560040154014211156111af576003601260146101000a81548160ff0219169083600381111561101d57fe5b02179055506002601260156101000a81548160ff0219169083600281111561104157fe5b0217905550601060009054906101000a900473ffffffffffffffffffffffffffffffffffffffff1673ffffffffffffffffffffffffffffffffffffffff1663e11523436016600201546040518263ffffffff167c010000000000000000000000000000000000000000000000000000000002815260040180828152602001915050600060405180830381600087803b1580156110dc57600080fd5b505af11580156110f0573d6000803e3d6000fd5b505050507ff1514e4ffdad910f4b453b7d21efcbbdfbae79984f038bcefa7cc193b4d8af7c601660020154600f60000160019054906101000a900473ffffffffffffffffffffffffffffffffffffffff16601260149054906101000a900460ff16604051808481526020018373ffffffffffffffffffffffffffffffffffffffff1673ffffffffffffffffffffffffffffffffffffffff16815260200182600381111561119957fe5b60ff168152602001935050505060405180910390a15b5b50565b6000806000806000601260149054906101000a900460ff16600560030160009054906101000a900460ff166005800160009054906101000a900460ff16600b60010160009054906101000a900460ff16600b60030160009054906101000a900460ff16945094509450945094509091929394565b60155481565b6112356126bb565b8073ffffffffffffffffffffffffffffffffffffffff163373ffffffffffffffffffffffffffffffffffffffff161415156112d8576040517f08c379a00000000000000000000000000000000000000000000000000000000081526004018080602001828103825260168152602001807f53656e646572206e6f7420617574686f72697a65642e0000000000000000000081525060200191505060405180910390fd5b7f520d4ae78869196380618668a4f4393795e9f9509aa0f1fd89854ce1bcf1829c826040518080602001828103825283818151815260200191508051906020019080838360005b8381101561133a57808201518184015260208101905061131f565b50505050905090810190601f1680156113675780820380516001836020036101000a031916815260200191505b509250505060405180910390a181601d908051906020019061138a929190613c01565b50611464601d8054600181600116156101000203166002900480601f0160208091040260200160405190810160405280929190818152602001828054600181600116156101000203166002900480156114245780601f106113f957610100808354040283529160200191611424565b820191906000526020600020905b81548152906001019060200180831161140757829003601f168201915b50505050506040518060400160405280600281526020017f4c44000000000000000000000000000000000000000000000000000000000000815250612a2e565b15611552576001600560030160006101000a81548160ff021916908315150217905550426005600401819055507f0f3ef0c2ecdcae0cd8984d9940e5209bd2e42fb6f48ff85f27e4cd08226aa6e130600f60000160019054906101000a900473ffffffffffffffffffffffffffffffffffffffff16604051808373ffffffffffffffffffffffffffffffffffffffff1673ffffffffffffffffffffffffffffffffffffffff1681526020018273ffffffffffffffffffffffffffffffffffffffff1673ffffffffffffffffffffffffffffffffffffffff1681526020019250505060405180910390a161155e565b61155d610258612b21565b5b505050565b600f60000160019054906101000a900473ffffffffffffffffffffffffffffffffffffffff168073ffffffffffffffffffffffffffffffffffffffff163373ffffffffffffffffffffffffffffffffffffffff1614151561162c576040517f08c379a00000000000000000000000000000000000000000000000000000000081526004018080602001828103825260168152602001807f53656e646572206e6f7420617574686f72697a65642e0000000000000000000081525060200191505060405180910390fd5b6000601260149054906101000a900460ff16600381111561164957fe5b81600381111561165557fe5b14151561166157600080fd5b6005800160009054906101000a900460ff1615156116e7576040517f08c379a000000000000000000000000000000000000000000000000000000000815260040180806020018281038252601b8152602001807f466c69676874206d75737420626520696e697469616c697a65642e000000000081525060200191505060405180910390fd5b60166000015434141515611763576040517f08c379a000000000000000000000000000000000000000000000000000000000815260040180806020018281038252601e8152602001807f4d7573742073656e64206578616374207072656d69756d2076616c75652e000081525060200191505060405180910390fd5b346013600082825401925050819055506001601260146101000a81548160ff0219169083600381111561179257fe5b0217905550426014819055507fd30f8750c53efefdbcf67ccd115e87b7ddb491b5c00b0cd4ad282870a197492934601260149054906101000a900460ff16604051808381526020018260038111156117e657fe5b60ff1681526020019250505060405180910390a15050565b505050565b600f60000160019054906101000a900473ffffffffffffffffffffffffffffffffffffffff168073ffffffffffffffffffffffffffffffffffffffff163373ffffffffffffffffffffffffffffffffffffffff161415156118cc576040517f08c379a00000000000000000000000000000000000000000000000000000000081526004018080602001828103825260168152602001807f53656e646572206e6f7420617574686f72697a65642e0000000000000000000081525060200191505060405180910390fd5b6001601260149054906101000a900460ff1660038111156118e957fe5b8160038111156118f557fe5b14151561190157600080fd5b60166003015460145401421115151561191957600080fd5b600f60000160009054906101000a900460ff16151515611984576040517f08c379a0000000000000000000000000000000000000000000000000000000008152600401808060200182810382526027815260200180613d5d6027913960400191505060405180910390fd5b600f60000160019054906101000a900473ffffffffffffffffffffffffffffffffffffffff1673ffffffffffffffffffffffffffffffffffffffff166108fc6013549081150290604051600060405180830381858888f193505050501580156119f1573d6000803e3d6000fd5b506002601260146101000a81548160ff02191690836003811115611a1157fe5b02179055505050565b601260009054906101000a900473ffffffffffffffffffffffffffffffffffffffff168073ffffffffffffffffffffffffffffffffffffffff163373ffffffffffffffffffffffffffffffffffffffff16141515611ae0576040517f08c379a00000000000000000000000000000000000000000000000000000000081526004018080602001828103825260168152602001807f53656e646572206e6f7420617574686f72697a65642e0000000000000000000081525060200191505060405180910390fd5b6001601260149054906101000a900460ff166003811115611afd57fe5b816003811115611b0957fe5b141515611b1557600080fd5b600560030160009054906101000a900460ff161515611b3357600080fd5b611bda84600b6000018054600181600116156101000203166002900480601f016020809104026020016040519081016040528092919081815260200182805460018160011615610100020316600290048015611bd05780601f10611ba557610100808354040283529160200191611bd0565b820191906000526020600020905b815481529060010190602001808311611bb357829003601f168201915b5050505050612a2e565b1515611c4e576040517f08c379a00000000000000000000000000000000000000000000000000000000081526004018080602001828103825260188152602001807f4d7573742062652073616d65206c7567676167652069642e000000000000000081525060200191505060405180910390fd5b600b60010160009054906101000a900460ff16151515611c6d57600080fd5b600115158315151415611cab576001600b60010160006101000a81548160ff02191690831515021790555042600b60020181905550611caa610c89565b5b50505050565b601260009054906101000a900473ffffffffffffffffffffffffffffffffffffffff168073ffffffffffffffffffffffffffffffffffffffff163373ffffffffffffffffffffffffffffffffffffffff16141515611d77576040517f08c379a00000000000000000000000000000000000000000000000000000000081526004018080602001828103825260168152602001807f53656e646572206e6f7420617574686f72697a65642e0000000000000000000081525060200191505060405180910390fd5b6001601260149054906101000a900460ff166003811115611d9457fe5b816003811115611da057fe5b141515611dac57600080fd5b600b60030160009054906101000a900460ff16151515611dcb57600080fd5b60405180608001604052808481526020016000151581526020016000815260200160011515815250600b6000820151816000019080519060200190611e11929190613c81565b5060208201518160010160006101000a81548160ff0219169083151502179055506040820151816002015560608201518160030160006101000a81548160ff021916908315150217905550905050505050565b601d8054600181600116156101000203166002900480601f016020809104026020016040519081016040528092919081815260200182805460018160011615610100020316600290048015611efa5780601f10611ecf57610100808354040283529160200191611efa565b820191906000526020600020905b815481529060010190602001808311611edd57829003601f168201915b505050505081565b6005806000018054600181600116156101000203166002900480601f016020809104026020016040519081016040528092919081815260200182805460018160011615610100020316600290048015611f9c5780601f10611f7157610100808354040283529160200191611f9c565b820191906000526020600020905b815481529060010190602001808311611f7f57829003601f168201915b505050505090806001018054600181600116156101000203166002900480601f01602080910402602001604051908101604052809291908181526020018280546001816001161561010002031660029004801561203a5780601f1061200f5761010080835404028352916020019161203a565b820191906000526020600020905b81548152906001019060200180831161201d57829003601f168201915b5050505050908060020154908060030160009054906101000a900460ff16908060040154908060050160009054906101000a900460ff16905086565b6000600f60000160019054906101000a900473ffffffffffffffffffffffffffffffffffffffff16905090565b601260009054906101000a900473ffffffffffffffffffffffffffffffffffffffff1681565b600f8060000160009054906101000a900460ff16908060000160019054906101000a900473ffffffffffffffffffffffffffffffffffffffff16905082565b601260159054906101000a900460ff1681565b60135481565b60168060000154908060010154908060020154908060030154908060040154908060050154905086565b601260149054906101000a900460ff1681565b601260009054906101000a900473ffffffffffffffffffffffffffffffffffffffff168073ffffffffffffffffffffffffffffffffffffffff163373ffffffffffffffffffffffffffffffffffffffff16141515612224576040517f08c379a00000000000000000000000000000000000000000000000000000000081526004018080602001828103825260168152602001807f53656e646572206e6f7420617574686f72697a65642e0000000000000000000081525060200191505060405180910390fd5b600f60000160019054906101000a900473ffffffffffffffffffffffffffffffffffffffff1673ffffffffffffffffffffffffffffffffffffffff168273ffffffffffffffffffffffffffffffffffffffff161415156122ec576040517f08c379a000000000000000000000000000000000000000000000000000000000815260040180806020018281038252601d8152602001807f4d7573742073656e642061646472657373206f6620696e73757265652e00000081525060200191505060405180910390fd5b600b60030160009054906101000a900460ff16151561230a57600080fd5b600f60000160009054906101000a900460ff1615151561232957600080fd5b6001600f60000160006101000a81548160ff021916908315150217905550600042600560020154039050601c60009054906101000a900460ff161561236d57600190505b61237681612b21565b505050565b600f60000160019054906101000a900473ffffffffffffffffffffffffffffffffffffffff168073ffffffffffffffffffffffffffffffffffffffff163373ffffffffffffffffffffffffffffffffffffffff16141515612444576040517f08c379a00000000000000000000000000000000000000000000000000000000081526004018080602001828103825260168152602001807f53656e646572206e6f7420617574686f72697a65642e0000000000000000000081525060200191505060405180910390fd5b6000601260149054906101000a900460ff16600381111561246157fe5b81600381111561246d57fe5b14151561247957600080fd5b6040518060c001604052808681526020018581526020018481526020016000151581526020016000815260200160011515815250600560008201518160000190805190602001906124cb929190613c81565b5060208201518160010190805190602001906124e8929190613c81565b506040820151816002015560608201518160030160006101000a81548160ff0219169083151502179055506080820151816004015560a08201518160050160006101000a81548160ff0219169083151502179055509050503373ffffffffffffffffffffffffffffffffffffffff167faf87d7222487d956b269b71376e176ab81904b48c0206cce047f6bba27544619601260149054906101000a900460ff166040518082600381111561259857fe5b60ff16815260200191505060405180910390a25050505050565b601160009054906101000a900473ffffffffffffffffffffffffffffffffffffffff1681565b601c60009054906101000a900460ff1681565b600b806000018054600181600116156101000203166002900480601f0160208091040260200160405190810160405280929190818152602001828054600181600116156101000203166002900480156126855780601f1061265a57610100808354040283529160200191612685565b820191906000526020600020905b81548152906001019060200180831161266857829003601f168201915b5050505050908060010160009054906101000a900460ff16908060020154908060030160009054906101000a900460ff16905084565b60008073ffffffffffffffffffffffffffffffffffffffff16600160009054906101000a900473ffffffffffffffffffffffffffffffffffffffff1673ffffffffffffffffffffffffffffffffffffffff16148061274357506000612741600160009054906101000a900473ffffffffffffffffffffffffffffffffffffffff16612d61565b145b15612754576127526000612d6c565b505b600160009054906101000a900473ffffffffffffffffffffffffffffffffffffffff1673ffffffffffffffffffffffffffffffffffffffff166338cc48316040518163ffffffff167c0100000000000000000000000000000000000000000000000000000000028152600401602060405180830381600087803b1580156127da57600080fd5b505af11580156127ee573d6000803e3d6000fd5b505050506040513d602081101561280457600080fd5b810190808051906020019092919050505073ffffffffffffffffffffffffffffffffffffffff166000809054906101000a900473ffffffffffffffffffffffffffffffffffffffff1673ffffffffffffffffffffffffffffffffffffffff1614151561296b57600160009054906101000a900473ffffffffffffffffffffffffffffffffffffffff1673ffffffffffffffffffffffffffffffffffffffff166338cc48316040518163ffffffff167c0100000000000000000000000000000000000000000000000000000000028152600401602060405180830381600087803b1580156128f057600080fd5b505af1158015612904573d6000803e3d6000fd5b505050506040513d602081101561291a57600080fd5b81019080805190602001909291905050506000806101000a81548173ffffffffffffffffffffffffffffffffffffffff021916908373ffffffffffffffffffffffffffffffffffffffff1602179055505b6000809054906101000a900473ffffffffffffffffffffffffffffffffffffffff1673ffffffffffffffffffffffffffffffffffffffff1663c281d19e6040518163ffffffff167c010000000000000000000000000000000000000000000000000000000002815260040160206040518083038186803b1580156129ee57600080fd5b505afa158015612a02573d6000803e3d6000fd5b505050506040513d6020811015612a1857600080fd5b8101908080519060200190929190505050905090565b6000816040516020018082805190602001908083835b602083101515612a695780518252602082019150602081019050602083039250612a44565b6001836020036101000a03801982511681845116808217855250505050505090500191505060405160208183030381529060405280519060200120836040516020018082805190602001908083835b602083101515612add5780518252602082019150602081019050602083039250612ab8565b6001836020036101000a0380198251168184511680821785525050505050509050019150506040516020818303038152906040528051906020012014905092915050565b6060612ccf6040518060c0016040528060908152602001613d846090913960056000018054600181600116156101000203166002900480601f016020809104026020016040519081016040528092919081815260200182805460018160011615610100020316600290048015612bd85780601f10612bad57610100808354040283529160200191612bd8565b820191906000526020600020905b815481529060010190602001808311612bbb57829003601f168201915b50505050506040518060400160405280600681526020017f26646174653d000000000000000000000000000000000000000000000000000081525060056001018054600181600116156101000203166002900480601f016020809104026020016040519081016040528092919081815260200182805460018160011615610100020316600290048015612cac5780601f10612c8157610100808354040283529160200191612cac565b820191906000526020600020905b815481529060010190602001808311612c8f57829003601f168201915b50505050506040518060600160405280603c8152602001613e14603c9139612d7d565b9050612d11826040518060400160405280600381526020017f55524c000000000000000000000000000000000000000000000000000000000081525083613198565b507f621c2856e3b87f81235f8ac8a22bbb40a0142961960710d00b2b6c380902b57e604051808060200182810382526036815260200180613d276036913960400191505060405180910390a15050565b6000813b9050919050565b6000612d76613751565b9050919050565b6060808690506060869050606086905060608690506060869050606081518351855187518951010101016040519080825280601f01601f191660200182016040528015612dd95781602001600182028038833980820191505090505b509050606081905060008090506000809050600090505b8851811015612ea3578881815181101515612e0757fe5b9060200101517f010000000000000000000000000000000000000000000000000000000000000090047f0100000000000000000000000000000000000000000000000000000000000000028383806001019450815181101515612e6657fe5b9060200101907effffffffffffffffffffffffffffffffffffffffffffffffffffffffffffff1916908160001a9053508080600101915050612df0565b600090505b8751811015612f5b578781815181101515612ebf57fe5b9060200101517f010000000000000000000000000000000000000000000000000000000000000090047f0100000000000000000000000000000000000000000000000000000000000000028383806001019450815181101515612f1e57fe5b9060200101907effffffffffffffffffffffffffffffffffffffffffffffffffffffffffffff1916908160001a9053508080600101915050612ea8565b600090505b8651811015613013578681815181101515612f7757fe5b9060200101517f010000000000000000000000000000000000000000000000000000000000000090047f0100000000000000000000000000000000000000000000000000000000000000028383806001019450815181101515612fd657fe5b9060200101907effffffffffffffffffffffffffffffffffffffffffffffffffffffffffffff1916908160001a9053508080600101915050612f60565b600090505b85518110156130cb57858181518110151561302f57fe5b9060200101517f010000000000000000000000000000000000000000000000000000000000000090047f010000000000000000000000000000000000000000000000000000000000000002838380600101945081518110151561308e57fe5b9060200101907effffffffffffffffffffffffffffffffffffffffffffffffffffffffffffff1916908160001a9053508080600101915050613018565b600090505b84518110156131835784818151811015156130e757fe5b9060200101517f010000000000000000000000000000000000000000000000000000000000000090047f010000000000000000000000000000000000000000000000000000000000000002838380600101945081518110151561314657fe5b9060200101907effffffffffffffffffffffffffffffffffffffffffffffffffffffffffffff1916908160001a90535080806001019150506130d0565b82995050505050505050505095945050505050565b60008073ffffffffffffffffffffffffffffffffffffffff16600160009054906101000a900473ffffffffffffffffffffffffffffffffffffffff1673ffffffffffffffffffffffffffffffffffffffff1614806132205750600061321e600160009054906101000a900473ffffffffffffffffffffffffffffffffffffffff16612d61565b145b156132315761322f6000612d6c565b505b600160009054906101000a900473ffffffffffffffffffffffffffffffffffffffff1673ffffffffffffffffffffffffffffffffffffffff166338cc48316040518163ffffffff167c0100000000000000000000000000000000000000000000000000000000028152600401602060405180830381600087803b1580156132b757600080fd5b505af11580156132cb573d6000803e3d6000fd5b505050506040513d60208110156132e157600080fd5b810190808051906020019092919050505073ffffffffffffffffffffffffffffffffffffffff166000809054906101000a900473ffffffffffffffffffffffffffffffffffffffff1673ffffffffffffffffffffffffffffffffffffffff1614151561344857600160009054906101000a900473ffffffffffffffffffffffffffffffffffffffff1673ffffffffffffffffffffffffffffffffffffffff166338cc48316040518163ffffffff167c0100000000000000000000000000000000000000000000000000000000028152600401602060405180830381600087803b1580156133cd57600080fd5b505af11580156133e1573d6000803e3d6000fd5b505050506040513d60208110156133f757600080fd5b81019080805190602001909291905050506000806101000a81548173ffffffffffffffffffffffffffffffffffffffff021916908373ffffffffffffffffffffffffffffffffffffffff1602179055505b60008060009054906101000a900473ffffffffffffffffffffffffffffffffffffffff1673ffffffffffffffffffffffffffffffffffffffff1663524f3889856040518263ffffffff167c01000000000000000000000000000000000000000000000000000000000281526004018080602001828103825283818151815260200191508051906020019080838360005b838110156134f35780820151818401526020810190506134d8565b50505050905090810190601f1680156135205780820380516001836020036101000a031916815260200191505b5092505050602060405180830381600087803b15801561353f57600080fd5b505af1158015613553573d6000803e3d6000fd5b505050506040513d602081101561356957600080fd5b8101908080519060200190929190505050905062030d403a02670de0b6b3a7640000018111156135a057600060010291505061374a565b6000809054906101000a900473ffffffffffffffffffffffffffffffffffffffff1673ffffffffffffffffffffffffffffffffffffffff1663adf59f99828787876040518563ffffffff167c0100000000000000000000000000000000000000000000000000000000028152600401808481526020018060200180602001838103835285818151815260200191508051906020019080838360005b8381101561365657808201518184015260208101905061363b565b50505050905090810190601f1680156136835780820380516001836020036101000a031916815260200191505b50838103825284818151815260200191508051906020019080838360005b838110156136bc5780820151818401526020810190506136a1565b50505050905090810190601f1680156136e95780820380516001836020036101000a031916815260200191505b50955050505050506020604051808303818588803b15801561370a57600080fd5b505af115801561371e573d6000803e3d6000fd5b50505050506040513d602081101561373557600080fd5b81019080805190602001909291905050509150505b9392505050565b600080613771731d3b2638a7cc9f2cb3d298a3da7a90b67e5506ed612d61565b111561381357731d3b2638a7cc9f2cb3d298a3da7a90b67e5506ed600160006101000a81548173ffffffffffffffffffffffffffffffffffffffff021916908373ffffffffffffffffffffffffffffffffffffffff16021790555061380a6040518060400160405280600b81526020017f6574685f6d61696e6e6574000000000000000000000000000000000000000000815250613be7565b60019050613be4565b600061383273c03a2615d5efaf5f49f60b7bb6583eaec212fdf1612d61565b11156138d45773c03a2615d5efaf5f49f60b7bb6583eaec212fdf1600160006101000a81548173ffffffffffffffffffffffffffffffffffffffff021916908373ffffffffffffffffffffffffffffffffffffffff1602179055506138cb6040518060400160405280600c81526020017f6574685f726f707374656e330000000000000000000000000000000000000000815250613be7565b60019050613be4565b60006138f373b7a07bcf2ba2f2703b24c0691b5278999c59ac7e612d61565b11156139955773b7a07bcf2ba2f2703b24c0691b5278999c59ac7e600160006101000a81548173ffffffffffffffffffffffffffffffffffffffff021916908373ffffffffffffffffffffffffffffffffffffffff16021790555061398c6040518060400160405280600981526020017f6574685f6b6f76616e0000000000000000000000000000000000000000000000815250613be7565b60019050613be4565b60006139b473146500cfd35b22e4a392fe0adc06de1a1368ed48612d61565b1115613a565773146500cfd35b22e4a392fe0adc06de1a1368ed48600160006101000a81548173ffffffffffffffffffffffffffffffffffffffff021916908373ffffffffffffffffffffffffffffffffffffffff160217905550613a4d6040518060400160405280600b81526020017f6574685f72696e6b656279000000000000000000000000000000000000000000815250613be7565b60019050613be4565b6000613a75736f485c8bf6fc43ea212e93bbf8ce046c7f1cb475612d61565b1115613ad957736f485c8bf6fc43ea212e93bbf8ce046c7f1cb475600160006101000a81548173ffffffffffffffffffffffffffffffffffffffff021916908373ffffffffffffffffffffffffffffffffffffffff16021790555060019050613be4565b6000613af87320e12a1f859b3feae5fb2a0a32c18f5a65555bbf612d61565b1115613b5c577320e12a1f859b3feae5fb2a0a32c18f5a65555bbf600160006101000a81548173ffffffffffffffffffffffffffffffffffffffff021916908373ffffffffffffffffffffffffffffffffffffffff16021790555060019050613be4565b6000613b7b7351efaf4c8b3c9afbd5ab9f4bbc82784ab6ef8faa612d61565b1115613bdf577351efaf4c8b3c9afbd5ab9f4bbc82784ab6ef8faa600160006101000a81548173ffffffffffffffffffffffffffffffffffffffff021916908373ffffffffffffffffffffffffffffffffffffffff16021790555060019050613be4565b600090505b90565b8060029080519060200190613bfd929190613c01565b5050565b828054600181600116156101000203166002900490600052602060002090601f016020900481019282601f10613c4257805160ff1916838001178555613c70565b82800160010185558215613c70579182015b82811115613c6f578251825591602001919060010190613c54565b5b509050613c7d9190613d01565b5090565b828054600181600116156101000203166002900490600052602060002090601f016020900481019282601f10613cc257805160ff1916838001178555613cf0565b82800160010185558215613cf0579182015b82811115613cef578251825591602001919060010190613cd4565b5b509050613cfd9190613d01565b5090565b613d2391905b80821115613d1f576000816000905550600101613d07565b5090565b9056fe4f7261636c697a65207175657279207761732073656e742c207374616e64696e6720627920666f722074686520616e737765722e2e2e496e7375726565206d757374206e6f742068617665206265656e20626f6172646564207965742e6a736f6e2868747470733a2f2f6f7263616c697a652d6261636b656e642d746573742e6865726f6b756170702e636f6d2f666c696768743f6170695f746f6b656e3d6230336262383430626237623866653331653062363965613863323461616236343934353063306161376665323236353663626631653938306131623732396126666c696768746e756d6265723d292e646174612e466c696768745374617475735265736f757263652e466c69676874732e466c696768742e466c696768745374617475732e436f6465a165627a7a723058201cc2cc7753f961960a54dd2e07036290ff6f7cae02d4486c921263f58e673fb50029",
  "source": "pragma solidity 0.5.5;\nimport \"./InsuranceContractManager.sol\";\nimport \"./oraclize/oraclizeAPI_0.5.sol\";\n\ncontract LuggageInsuranceContract is usingOraclize {\n    \n    //create a Flight datatype\n    struct Flight {\n        //flightNumber for insured luggage travel\n        string flightNumber;\n        //saves day of departure\n        string departureDay;\n        uint plannedArrival;\n        //saves state flight landed in destination airport\n        bool landed;\n        //saves timestamp the flight is landed\n        uint timeLanded;\n        //flight is initialized\n        bool initialized;\n    }\n    \n    //create a Luggage datatype\n    struct Luggage {\n        //saves luggageID\n        string id;\n        //is the luggage onBelt in destination airport\n        bool onBelt; \n        //saves timestamp when luggage is on belt\n        uint timeOnBelt;\n        //luggage is initialized\n        bool initialized;\n    }\n    \n    //create a Insuree datatype\n    struct Insuree {\n        //insuree is boarded in departure airport\n        bool boarded;\n        //addressInsuree\n        address payable addressInsuree;\n    }\n    \n    // create a State enum \n    enum State {\n        //contract inactive till premium not paid, after premium paid active, can be revoked and is closed when insuree or insurance address gets balance\n        inactive, active, revoked, closed\n    }\n    \n    enum ClaimState{\n        none, delay, lost\n    }\n    \n    //store structs\n    Flight public flight;\n    Luggage public luggage;\n    Insuree public insuree;\n    \n    // save a InsuranceContractManager\n    InsuranceContractManager insuranceContractManagerInstance;\n    \n    // TODO:change address oracle when implementing oraclize\n    address public addressOracle;\n    address public addressBackend;\n    \n    //store enum\n    State public state;\n    ClaimState public claimState;\n    //overall contract balance\n    uint public balance;\n    //saves time when the Smart Contract is activated\n    uint timeContractActivated;\n    \n    //saves the timeDifference between flight.timelanded and luggage.timeOnBelt\n    uint public timeDifference;\n    //saves the timeLimit for LuggageLost\n    \n    InsuranceContractManager.InsuranceContractConditions public insuranceContractConditions;\n    // only for testing purposes\n    bool public test;\n    \n    \n    //modifier for onlyBy condition\n    modifier onlyBy(address _account) {\n        require(msg.sender == _account, \"Sender not authorized.\");\n        _;\n    }\n    //modifier for ifState condition\n     modifier ifState(State _state) {\n        require(_state == state);\n        _;\n    }\n    //modifier for ifLanded condition\n    modifier ifLanded() {\n        require(flight.landed);\n        _;\n    }\n    \n    //event to show a contract for a certain addressInsuree was created\n    event ContractCreated(address indexed _addressInsuree, State _state);\n    //event to show premium was paid and contract activated\n    event PremiumPaid(uint _premium, State _state);\n    //event to show insurance amount was paid to insuree\n    event InsuranceAmountPaid(uint _amount, address _addressInsuree, State _state);\n    //event to show there was no claim as premium was paid to insurance\n    event NoClaim(State _state);\n    event LogNewOraclizeQuery(string description);\n    event LogFlightStatus(string status);\n    event FlightLanded(address addressLuggageContract, address addressInsuree);\n    string public flightStatus;\n\n\n    //constructor \n    constructor(\n        address payable addressInsuree,\n        address backend,\n        uint premium,\n        uint amountDelay,\n        uint amountLost,\n        uint revokeTimeLimit,\n        uint timeLimitLuggageLost,\n        uint timeLimitForPayOut,\n        bool isTest\n    ) public payable {\n        // require dao address\n        // require(addressOracle != msg.sender);\n        insuree = Insuree(false, addressInsuree);\n        insuranceContractManagerInstance = InsuranceContractManager(msg.sender);\n        \n        insuranceContractConditions = InsuranceContractManager.InsuranceContractConditions(\n            premium,\n            amountDelay,\n            amountLost,\n            revokeTimeLimit,\n            timeLimitLuggageLost,\n            timeLimitForPayOut\n        );\n        addressBackend = backend;\n        addressOracle = backend;\n        state = State.inactive;\n        claimState = ClaimState.none;\n        test = isTest;\n    }\n    \n    //setFlight() function\n    function setFlight(\n        string memory flightNumber,\n        string memory departureDay,\n        uint plannedArrival\n    ) public onlyBy(insuree.addressInsuree) ifState(State.inactive){\n        flight = Flight(\n            flightNumber,\n            departureDay,\n            plannedArrival,\n            false,\n            0, \n            true\n        );\n        //throw Event ContractCreated() \n        emit ContractCreated(msg.sender, state);\n    }\n    //payPremium() function\n    function payPremium() public payable onlyBy(insuree.addressInsuree) ifState(State.inactive) {\n        require(flight.initialized, \"Flight must be initialized.\");\n        require(msg.value == insuranceContractConditions.premium, \"Must send exact premium value.\");\n        balance += msg.value;\n        state = State.active;\n        timeContractActivated = now;\n         //throw Event PremiumPaid()\n        emit PremiumPaid(msg.value, state);\n    }\n     \n    //checkInLuggage() function\n    function checkInLuggage(string memory _luggageID) public onlyBy(addressBackend) ifState(State.active) {\n        require(!luggage.initialized);\n        luggage = Luggage(_luggageID, false, 0, true);\n    }\n    //revokeContract() function\n    function revokeContract() public onlyBy(insuree.addressInsuree) ifState(State.active) {\n        require(now <= timeContractActivated + insuranceContractConditions.revokeTimeLimit);\n        require(!insuree.boarded, \"Insuree must not have been boarded yet.\");\n        insuree.addressInsuree.transfer(balance);\n        state = State.revoked;\n    }\n    //boardingPassenger() function\n    function boardingPassenger(address _addressInsuree) public onlyBy(addressBackend) {\n        require(_addressInsuree == insuree.addressInsuree, \"Must send address of insuree.\");\n        require(luggage.initialized);\n        require(!insuree.boarded);\n        insuree.boarded = true;\n        uint triggerTimeout = flight.plannedArrival - now;\n        if(test){\n            triggerTimeout = 1;\n        }\n        requestFlightState(triggerTimeout);\n    }\n\n    function __callback(bytes32 myid, string memory result) public onlyBy(oraclize_cbAddress()) {\n        // require(msg.sender == oraclize_cbAddress());\n        emit LogFlightStatus(result);\n        flightStatus = result;\n        if(compareStrings(flightStatus, \"LD\")){\n            flight.landed = true;\n            flight.timeLanded = now;\n            emit FlightLanded(address(this), insuree.addressInsuree);\n        } else {\n            // update flight state all 10 minutes as long as the flight is not landed\n            requestFlightState(600);\n        }\n    }\n\n    function requestFlightState(uint triggerTimeout) private {\n        string memory query = strConcat(\n            \"json(https://orcalize-backend-test.herokuapp.com/flight?api_token=b03bb840bb7b8fe31e0b69ea8c24aab649450c0aa7fe22656cbf1e980a1b729a&flightnumber=\",\n            flight.flightNumber,\n            '&date=',\n            flight.departureDay,\n            \").data.FlightStatusResource.Flights.Flight.FlightStatus.Code\"\n        );\n        oraclize_query(triggerTimeout, \"URL\", query);\n        emit LogNewOraclizeQuery(\"Oraclize query was sent, standing by for the answer...\");\n    }\n\n    //setLuggageState() function\n    function setLuggageState(string memory _luggageID, bool _onBelt) public onlyBy(addressBackend) ifState(State.active) ifLanded() {\n        require(compareStrings(_luggageID, luggage.id), \"Must be same luggage id.\");\n        require(!luggage.onBelt);\n        //check state onBelt\n        if(_onBelt == true){\n            luggage.onBelt = true;\n            luggage.timeOnBelt = now;\n            checkClaim();\n        }\n    }\n    function checkClaim() public payable ifState(State.active) ifLanded() {\n        //send premium to InsuranceContractManager Account\n        insuranceContractManagerInstance.receiveMoney.value(balance)();\n         // check luggage delay\n        if(luggage.onBelt) {\n            timeDifference = luggage.timeOnBelt - flight.timeLanded;\n            if (timeDifference > insuranceContractConditions.timeLimitForPayOut) {\n                //in case there is an delay throw InsuranceAmountPaid() and transfer insurance amount to insuree\n                state = State.closed;\n                claimState = ClaimState.delay;\n                insuranceContractManagerInstance.payout(insuranceContractConditions.amountDelay);\n                emit InsuranceAmountPaid(insuranceContractConditions.amountDelay, insuree.addressInsuree, state);\n            } else {\n                //in case there is no delay throw NoClaim and transfer premium to insurance\n                state = State.closed;\n                emit NoClaim(state);\n            }\n            //check luggage lost\n        } else if(now > flight.timeLanded + insuranceContractConditions.timeLimitLuggageLost){\n            //in case luggage is lost throw InsuranceAmountPaid and transfer insurance amount\n            state = State.closed;\n            claimState = ClaimState.lost;\n            insuranceContractManagerInstance.payout(insuranceContractConditions.amountLost);\n            emit InsuranceAmountPaid(insuranceContractConditions.amountLost, insuree.addressInsuree, state);\n        }\n    }\n    \n    //getState() function returns State, flight.landed, flight.initialized, luggage.onBelt and luggage.initialized\n    function getState() public view returns (State, bool, bool, bool, bool){\n        return (state, flight.landed, flight.initialized, luggage.onBelt, luggage.initialized);\n    }\n    \n    function getAddressInsuree() public view returns(address payable) {\n        return insuree.addressInsuree;\n    }\n    //compareStrings() function to compare strings by their hashes\n    function compareStrings(string memory a, string memory b) internal pure returns (bool){\n        return keccak256(abi.encodePacked(a)) == keccak256(abi.encodePacked(b));\n    }\n    //fallback function\n    function() external payable { }\n} ",
  "sourcePath": "/Users/anastasia.reimer/code/luggageInsuranceContract/contracts/LuggageInsuranceContract.sol",
  "compiler": {
    "name": "solc",
    "version": "0.5.5+commit.47a71e8f.Emscripten.clang"
  },
  "schemaVersion": "3.0.2",
  "updatedAt": "2019-03-20T01:09:43.697Z",
  "devdoc": {
    "methods": {}
  },
  "userdoc": {
    "methods": {}
  }
}