{
  "contractName": "LuggageInsuranceContract",
  "abi": [
    {
      "constant": true,
      "inputs": [],
      "name": "timeDifference",
      "outputs": [
        {
          "name": "",
          "type": "uint256"
        }
      ],
      "payable": false,
      "stateMutability": "view",
      "type": "function"
    },
    {
      "constant": true,
      "inputs": [],
      "name": "flight",
      "outputs": [
        {
          "name": "flightNumber",
          "type": "string"
        },
        {
          "name": "departureDay",
          "type": "uint256"
        },
        {
          "name": "landed",
          "type": "bool"
        },
        {
          "name": "timeLanded",
          "type": "uint256"
        },
        {
          "name": "initialized",
          "type": "bool"
        }
      ],
      "payable": false,
      "stateMutability": "view",
      "type": "function"
    },
    {
      "constant": true,
      "inputs": [],
      "name": "addressBackend",
      "outputs": [
        {
          "name": "",
          "type": "address"
        }
      ],
      "payable": false,
      "stateMutability": "view",
      "type": "function"
    },
    {
      "constant": true,
      "inputs": [],
      "name": "insuree",
      "outputs": [
        {
          "name": "boarded",
          "type": "bool"
        },
        {
          "name": "addressInsuree",
          "type": "address"
        }
      ],
      "payable": false,
      "stateMutability": "view",
      "type": "function"
    },
    {
      "constant": true,
      "inputs": [],
      "name": "claimState",
      "outputs": [
        {
          "name": "",
          "type": "uint8"
        }
      ],
      "payable": false,
      "stateMutability": "view",
      "type": "function"
    },
    {
      "constant": true,
      "inputs": [],
      "name": "balance",
      "outputs": [
        {
          "name": "",
          "type": "uint256"
        }
      ],
      "payable": false,
      "stateMutability": "view",
      "type": "function"
    },
    {
      "constant": true,
      "inputs": [],
      "name": "insuranceContractConditions",
      "outputs": [
        {
          "name": "premium",
          "type": "uint256"
        },
        {
          "name": "amountDelay",
          "type": "uint256"
        },
        {
          "name": "amountLost",
          "type": "uint256"
        },
        {
          "name": "revokeTimeLimit",
          "type": "uint256"
        },
        {
          "name": "timeLimitLuggageLost",
          "type": "uint256"
        },
        {
          "name": "timeLimitForPayOut",
          "type": "uint256"
        }
      ],
      "payable": false,
      "stateMutability": "view",
      "type": "function"
    },
    {
      "constant": true,
      "inputs": [],
      "name": "state",
      "outputs": [
        {
          "name": "",
          "type": "uint8"
        }
      ],
      "payable": false,
      "stateMutability": "view",
      "type": "function"
    },
    {
      "constant": true,
      "inputs": [],
      "name": "addressOracle",
      "outputs": [
        {
          "name": "",
          "type": "address"
        }
      ],
      "payable": false,
      "stateMutability": "view",
      "type": "function"
    },
    {
      "constant": true,
      "inputs": [],
      "name": "luggage",
      "outputs": [
        {
          "name": "id",
          "type": "string"
        },
        {
          "name": "onBelt",
          "type": "bool"
        },
        {
          "name": "timeOnBelt",
          "type": "uint256"
        },
        {
          "name": "initialized",
          "type": "bool"
        }
      ],
      "payable": false,
      "stateMutability": "view",
      "type": "function"
    },
    {
      "inputs": [
        {
          "name": "addressInsuree",
          "type": "address"
        },
        {
          "name": "backend",
          "type": "address"
        },
        {
          "name": "premium",
          "type": "uint256"
        },
        {
          "name": "amountDelay",
          "type": "uint256"
        },
        {
          "name": "amountLost",
          "type": "uint256"
        },
        {
          "name": "revokeTimeLimit",
          "type": "uint256"
        },
        {
          "name": "timeLimitLuggageLost",
          "type": "uint256"
        },
        {
          "name": "timeLimitForPayOut",
          "type": "uint256"
        }
      ],
      "payable": true,
      "stateMutability": "payable",
      "type": "constructor"
    },
    {
      "payable": true,
      "stateMutability": "payable",
      "type": "fallback"
    },
    {
      "anonymous": false,
      "inputs": [
        {
          "indexed": true,
          "name": "_addressInsuree",
          "type": "address"
        },
        {
          "indexed": false,
          "name": "_state",
          "type": "uint8"
        }
      ],
      "name": "ContractCreated",
      "type": "event"
    },
    {
      "anonymous": false,
      "inputs": [
        {
          "indexed": false,
          "name": "_premium",
          "type": "uint256"
        },
        {
          "indexed": false,
          "name": "_state",
          "type": "uint8"
        }
      ],
      "name": "PremiumPaid",
      "type": "event"
    },
    {
      "anonymous": false,
      "inputs": [
        {
          "indexed": false,
          "name": "_amount",
          "type": "uint256"
        },
        {
          "indexed": false,
          "name": "_addressInsuree",
          "type": "address"
        },
        {
          "indexed": false,
          "name": "_state",
          "type": "uint8"
        }
      ],
      "name": "InsuranceAmountPaid",
      "type": "event"
    },
    {
      "anonymous": false,
      "inputs": [
        {
          "indexed": false,
          "name": "_state",
          "type": "uint8"
        }
      ],
      "name": "NoClaim",
      "type": "event"
    },
    {
      "constant": false,
      "inputs": [
        {
          "name": "flightNumber",
          "type": "string"
        },
        {
          "name": "departureDay",
          "type": "uint256"
        }
      ],
      "name": "setFlight",
      "outputs": [],
      "payable": false,
      "stateMutability": "nonpayable",
      "type": "function"
    },
    {
      "constant": false,
      "inputs": [],
      "name": "payPremium",
      "outputs": [],
      "payable": true,
      "stateMutability": "payable",
      "type": "function"
    },
    {
      "constant": false,
      "inputs": [
        {
          "name": "_luggageID",
          "type": "string"
        }
      ],
      "name": "checkInLuggage",
      "outputs": [],
      "payable": false,
      "stateMutability": "nonpayable",
      "type": "function"
    },
    {
      "constant": false,
      "inputs": [],
      "name": "revokeContract",
      "outputs": [],
      "payable": false,
      "stateMutability": "nonpayable",
      "type": "function"
    },
    {
      "constant": false,
      "inputs": [
        {
          "name": "_addressInsuree",
          "type": "address"
        }
      ],
      "name": "boardingPassenger",
      "outputs": [],
      "payable": false,
      "stateMutability": "nonpayable",
      "type": "function"
    },
    {
      "constant": false,
      "inputs": [
        {
          "name": "flightState",
          "type": "string"
        }
      ],
      "name": "setFlightState",
      "outputs": [],
      "payable": false,
      "stateMutability": "nonpayable",
      "type": "function"
    },
    {
      "constant": false,
      "inputs": [
        {
          "name": "_luggageID",
          "type": "string"
        },
        {
          "name": "_onBelt",
          "type": "bool"
        }
      ],
      "name": "setLuggageState",
      "outputs": [],
      "payable": false,
      "stateMutability": "nonpayable",
      "type": "function"
    },
    {
      "constant": false,
      "inputs": [],
      "name": "checkClaim",
      "outputs": [],
      "payable": true,
      "stateMutability": "payable",
      "type": "function"
    },
    {
      "constant": true,
      "inputs": [],
      "name": "getState",
      "outputs": [
        {
          "name": "",
          "type": "uint8"
        },
        {
          "name": "",
          "type": "bool"
        },
        {
          "name": "",
          "type": "bool"
        },
        {
          "name": "",
          "type": "bool"
        },
        {
          "name": "",
          "type": "bool"
        }
      ],
      "payable": false,
      "stateMutability": "view",
      "type": "function"
    },
    {
      "constant": true,
      "inputs": [],
      "name": "getAddressInsuree",
      "outputs": [
        {
          "name": "",
          "type": "address"
        }
      ],
      "payable": false,
      "stateMutability": "view",
      "type": "function"
    }
  ],
  "bytecode": "0x608060405260405161010080612492833981018060405261010081101561002557600080fd5b81019080805190602001909291908051906020019092919080519060200190929190805190602001909291908051906020019092919080519060200190929190805190602001909291908051906020019092919050505060405180604001604052806000151581526020018973ffffffffffffffffffffffffffffffffffffffff16815250600960008201518160000160006101000a81548160ff02191690831515021790555060208201518160000160016101000a81548173ffffffffffffffffffffffffffffffffffffffff021916908373ffffffffffffffffffffffffffffffffffffffff16021790555090505033600a60006101000a81548173ffffffffffffffffffffffffffffffffffffffff021916908373ffffffffffffffffffffffffffffffffffffffff1602179055506040518060c00160405280878152602001868152602001858152602001848152602001838152602001828152506010600082015181600001556020820151816001015560408201518160020155606082015181600301556080820151816004015560a0820151816005015590505086600c60006101000a81548173ffffffffffffffffffffffffffffffffffffffff021916908373ffffffffffffffffffffffffffffffffffffffff16021790555086600b60006101000a81548173ffffffffffffffffffffffffffffffffffffffff021916908373ffffffffffffffffffffffffffffffffffffffff1602179055506000600c60146101000a81548160ff0219169083600381111561026657fe5b02179055506000600c60156101000a81548160ff0219169083600281111561028a57fe5b021790555050505050505050506121ec806102a66000396000f3fe60806040526004361061013c576000357c0100000000000000000000000000000000000000000000000000000000900480638fa5a55c116100bd578063bcced14211610081578063bcced14214610757578063c19d93fb146107a5578063ccf8b7d2146107de578063f5159b611461082f578063f974e491146108865761013c565b80638fa5a55c14610568578063904c5e071461063a57806390ed1d12146106915780639a725809146106f3578063b69ef8a81461072c5761013c565b8063692e64aa11610104578063692e64aa146101f95780636cf0729b146102cd57806372e80d2e1461039557806384edbb66146104495780638e1af00b146105115761013c565b806317fd9ff81461013e5780631865c57d146101485780631ea9a7bb146101ad57806329c08ba2146101d857806366625bbd146101e2575b005b610146610933565b005b34801561015457600080fd5b5061015d610e5d565b6040518086600381111561016d57fe5b60ff168152602001851515151581526020018415151515815260200183151515158152602001821515151581526020019550505050505060405180910390f35b3480156101b957600080fd5b506101c2610ed2565b6040518082815260200191505060405180910390f35b6101e0610ed8565b005b3480156101ee57600080fd5b506101f7611174565b005b34801561020557600080fd5b506102cb6004803603604081101561021c57600080fd5b810190808035906020019064010000000081111561023957600080fd5b82018360208201111561024b57600080fd5b8035906020019184600183028401116401000000008311171561026d57600080fd5b91908080601f016020809104026020016040519081016040528093929190818152602001838380828437600081840152601f19601f82011690508083019250505050505050919291929080351515906020019092919050505061138b565b005b3480156102d957600080fd5b50610393600480360360208110156102f057600080fd5b810190808035906020019064010000000081111561030d57600080fd5b82018360208201111561031f57600080fd5b8035906020019184600183028401116401000000008311171561034157600080fd5b91908080601f016020809104026020016040519081016040528093929190818152602001838380828437600081840152601f19601f820116905080830192505050505050509192919290505050611622565b005b3480156103a157600080fd5b506103aa6117d5565b60405180806020018681526020018515151515815260200184815260200183151515158152602001828103825287818151815260200191508051906020019080838360005b8381101561040a5780820151818401526020810190506103ef565b50505050905090810190601f1680156104375780820380516001836020036101000a031916815260200191505b50965050505050505060405180910390f35b34801561045557600080fd5b5061050f6004803603602081101561046c57600080fd5b810190808035906020019064010000000081111561048957600080fd5b82018360208201111561049b57600080fd5b803590602001918460018302840111640100000000831117156104bd57600080fd5b91908080601f016020809104026020016040519081016040528093929190818152602001838380828437600081840152601f19601f8201169050808301925050505050505091929192905050506118ab565b005b34801561051d57600080fd5b50610526611a24565b604051808273ffffffffffffffffffffffffffffffffffffffff1673ffffffffffffffffffffffffffffffffffffffff16815260200191505060405180910390f35b34801561057457600080fd5b506106386004803603604081101561058b57600080fd5b81019080803590602001906401000000008111156105a857600080fd5b8201836020820111156105ba57600080fd5b803590602001918460018302840111640100000000831117156105dc57600080fd5b91908080601f016020809104026020016040519081016040528093929190818152602001838380828437600081840152601f19601f82011690508083019250505050505050919291929080359060200190929190505050611a51565b005b34801561064657600080fd5b5061064f611c63565b604051808273ffffffffffffffffffffffffffffffffffffffff1673ffffffffffffffffffffffffffffffffffffffff16815260200191505060405180910390f35b34801561069d57600080fd5b506106a6611c89565b60405180831515151581526020018273ffffffffffffffffffffffffffffffffffffffff1673ffffffffffffffffffffffffffffffffffffffff1681526020019250505060405180910390f35b3480156106ff57600080fd5b50610708611cc8565b6040518082600281111561071857fe5b60ff16815260200191505060405180910390f35b34801561073857600080fd5b50610741611cdb565b6040518082815260200191505060405180910390f35b34801561076357600080fd5b5061076c611ce1565b60405180878152602001868152602001858152602001848152602001838152602001828152602001965050505050505060405180910390f35b3480156107b157600080fd5b506107ba611d0b565b604051808260038111156107ca57fe5b60ff16815260200191505060405180910390f35b3480156107ea57600080fd5b5061082d6004803603602081101561080157600080fd5b81019080803573ffffffffffffffffffffffffffffffffffffffff169060200190929190505050611d1e565b005b34801561083b57600080fd5b50610844611f0b565b604051808273ffffffffffffffffffffffffffffffffffffffff1673ffffffffffffffffffffffffffffffffffffffff16815260200191505060405180910390f35b34801561089257600080fd5b5061089b611f31565b60405180806020018515151515815260200184815260200183151515158152602001828103825286818151815260200191508051906020019080838360005b838110156108f55780820151818401526020810190506108da565b50505050905090810190601f1680156109225780820380516001836020036101000a031916815260200191505b509550505050505060405180910390f35b6001600c60149054906101000a900460ff16600381111561095057fe5b81600381111561095c57fe5b14151561096857600080fd5b600060020160009054906101000a900460ff16151561098657600080fd5b600a60009054906101000a900473ffffffffffffffffffffffffffffffffffffffff1673ffffffffffffffffffffffffffffffffffffffff16636d26ec18600d546040518263ffffffff167c01000000000000000000000000000000000000000000000000000000000281526004016000604051808303818588803b158015610a0e57600080fd5b505af1158015610a22573d6000803e3d6000fd5b5050505050600560010160009054906101000a900460ff1615610c945760006003015460056002015403600f81905550601060050154600f541115610c16576003600c60146101000a81548160ff02191690836003811115610a8057fe5b02179055506001600c60156101000a81548160ff02191690836002811115610aa457fe5b0217905550600a60009054906101000a900473ffffffffffffffffffffffffffffffffffffffff1673ffffffffffffffffffffffffffffffffffffffff1663e11523436010600101546040518263ffffffff167c010000000000000000000000000000000000000000000000000000000002815260040180828152602001915050600060405180830381600087803b158015610b3f57600080fd5b505af1158015610b53573d6000803e3d6000fd5b505050507ff1514e4ffdad910f4b453b7d21efcbbdfbae79984f038bcefa7cc193b4d8af7c601060010154600960000160019054906101000a900473ffffffffffffffffffffffffffffffffffffffff16600c60149054906101000a900460ff16604051808481526020018373ffffffffffffffffffffffffffffffffffffffff1673ffffffffffffffffffffffffffffffffffffffff168152602001826003811115610bfc57fe5b60ff168152602001935050505060405180910390a1610c8f565b6003600c60146101000a81548160ff02191690836003811115610c3557fe5b02179055507fe6b6cdab431a62cabc34e815ea9dc1491ce23dca0816dc79a7e12472eea64a5b600c60149054906101000a900460ff1660405180826003811115610c7b57fe5b60ff16815260200191505060405180910390a15b610e5a565b60106004015460006003015401421115610e59576003600c60146101000a81548160ff02191690836003811115610cc757fe5b02179055506002600c60156101000a81548160ff02191690836002811115610ceb57fe5b0217905550600a60009054906101000a900473ffffffffffffffffffffffffffffffffffffffff1673ffffffffffffffffffffffffffffffffffffffff1663e11523436010600201546040518263ffffffff167c010000000000000000000000000000000000000000000000000000000002815260040180828152602001915050600060405180830381600087803b158015610d8657600080fd5b505af1158015610d9a573d6000803e3d6000fd5b505050507ff1514e4ffdad910f4b453b7d21efcbbdfbae79984f038bcefa7cc193b4d8af7c601060020154600960000160019054906101000a900473ffffffffffffffffffffffffffffffffffffffff16600c60149054906101000a900460ff16604051808481526020018373ffffffffffffffffffffffffffffffffffffffff1673ffffffffffffffffffffffffffffffffffffffff168152602001826003811115610e4357fe5b60ff168152602001935050505060405180910390a15b5b50565b6000806000806000600c60149054906101000a900460ff16600060020160009054906101000a900460ff16600060040160009054906101000a900460ff16600560010160009054906101000a900460ff16600560030160009054906101000a900460ff16945094509450945094509091929394565b600f5481565b600960000160019054906101000a900473ffffffffffffffffffffffffffffffffffffffff168073ffffffffffffffffffffffffffffffffffffffff163373ffffffffffffffffffffffffffffffffffffffff16141515610fa1576040517f08c379a00000000000000000000000000000000000000000000000000000000081526004018080602001828103825260168152602001807f53656e646572206e6f7420617574686f72697a65642e0000000000000000000081525060200191505060405180910390fd5b6000600c60149054906101000a900460ff166003811115610fbe57fe5b816003811115610fca57fe5b141515610fd657600080fd5b600060040160009054906101000a900460ff16151561105d576040517f08c379a000000000000000000000000000000000000000000000000000000000815260040180806020018281038252601b8152602001807f466c69676874206d75737420626520696e697469616c697a65642e000000000081525060200191505060405180910390fd5b601060000154341415156110d9576040517f08c379a000000000000000000000000000000000000000000000000000000000815260040180806020018281038252601e8152602001807f4d7573742073656e64206578616374207072656d69756d2076616c75652e000081525060200191505060405180910390fd5b34600d600082825401925050819055506001600c60146101000a81548160ff0219169083600381111561110857fe5b021790555042600e819055507fd30f8750c53efefdbcf67ccd115e87b7ddb491b5c00b0cd4ad282870a197492934600c60149054906101000a900460ff166040518083815260200182600381111561115c57fe5b60ff1681526020019250505060405180910390a15050565b600960000160019054906101000a900473ffffffffffffffffffffffffffffffffffffffff168073ffffffffffffffffffffffffffffffffffffffff163373ffffffffffffffffffffffffffffffffffffffff1614151561123d576040517f08c379a00000000000000000000000000000000000000000000000000000000081526004018080602001828103825260168152602001807f53656e646572206e6f7420617574686f72697a65642e0000000000000000000081525060200191505060405180910390fd5b6001600c60149054906101000a900460ff16600381111561125a57fe5b81600381111561126657fe5b14151561127257600080fd5b601060030154600e5401421115151561128a57600080fd5b600960000160009054906101000a900460ff161515156112f5576040517f08c379a000000000000000000000000000000000000000000000000000000000815260040180806020018281038252602781526020018061219a6027913960400191505060405180910390fd5b600960000160019054906101000a900473ffffffffffffffffffffffffffffffffffffffff1673ffffffffffffffffffffffffffffffffffffffff166108fc600d549081150290604051600060405180830381858888f19350505050158015611362573d6000803e3d6000fd5b506002600c60146101000a81548160ff0219169083600381111561138257fe5b02179055505050565b600c60009054906101000a900473ffffffffffffffffffffffffffffffffffffffff168073ffffffffffffffffffffffffffffffffffffffff163373ffffffffffffffffffffffffffffffffffffffff16141515611451576040517f08c379a00000000000000000000000000000000000000000000000000000000081526004018080602001828103825260168152602001807f53656e646572206e6f7420617574686f72697a65642e0000000000000000000081525060200191505060405180910390fd5b6001600c60149054906101000a900460ff16600381111561146e57fe5b81600381111561147a57fe5b14151561148657600080fd5b600060020160009054906101000a900460ff1615156114a457600080fd5b61154b8460056000018054600181600116156101000203166002900480601f0160208091040260200160405190810160405280929190818152602001828054600181600116156101000203166002900480156115415780601f1061151657610100808354040283529160200191611541565b820191906000526020600020905b81548152906001019060200180831161152457829003601f168201915b5050505050612001565b15156115bf576040517f08c379a00000000000000000000000000000000000000000000000000000000081526004018080602001828103825260188152602001807f4d7573742062652073616d65206c7567676167652069642e000000000000000081525060200191505060405180910390fd5b600560010160009054906101000a900460ff161515156115de57600080fd5b60011515831515141561161c576001600560010160006101000a81548160ff0219169083151502179055504260056002018190555061161b610933565b5b50505050565b600c60009054906101000a900473ffffffffffffffffffffffffffffffffffffffff168073ffffffffffffffffffffffffffffffffffffffff163373ffffffffffffffffffffffffffffffffffffffff161415156116e8576040517f08c379a00000000000000000000000000000000000000000000000000000000081526004018080602001828103825260168152602001807f53656e646572206e6f7420617574686f72697a65642e0000000000000000000081525060200191505060405180910390fd5b6001600c60149054906101000a900460ff16600381111561170557fe5b81600381111561171157fe5b14151561171d57600080fd5b600560030160009054906101000a900460ff1615151561173c57600080fd5b60405180608001604052808481526020016000151581526020016000815260200160011515815250600560008201518160000190805190602001906117829291906120f4565b5060208201518160010160006101000a81548160ff0219169083151502179055506040820151816002015560608201518160030160006101000a81548160ff021916908315150217905550905050505050565b6000806000018054600181600116156101000203166002900480601f01602080910402602001604051908101604052809291908181526020018280546001816001161561010002031660029004801561186f5780601f106118445761010080835404028352916020019161186f565b820191906000526020600020905b81548152906001019060200180831161185257829003601f168201915b5050505050908060010154908060020160009054906101000a900460ff16908060030154908060040160009054906101000a900460ff16905085565b600b60009054906101000a900473ffffffffffffffffffffffffffffffffffffffff168073ffffffffffffffffffffffffffffffffffffffff163373ffffffffffffffffffffffffffffffffffffffff16141515611971576040517f08c379a00000000000000000000000000000000000000000000000000000000081526004018080602001828103825260168152602001807f53656e646572206e6f7420617574686f72697a65642e0000000000000000000081525060200191505060405180910390fd5b600960000160009054906101000a900460ff16151561198f57600080fd5b600060020160009054906101000a900460ff161515156119ae57600080fd5b6119ed826040518060400160405280600281526020017f4c44000000000000000000000000000000000000000000000000000000000000815250612001565b15611a1f576001600060020160006101000a81548160ff02191690831515021790555042600060030181905550611a20565b5b5050565b6000600960000160019054906101000a900473ffffffffffffffffffffffffffffffffffffffff16905090565b600960000160019054906101000a900473ffffffffffffffffffffffffffffffffffffffff168073ffffffffffffffffffffffffffffffffffffffff163373ffffffffffffffffffffffffffffffffffffffff16141515611b1a576040517f08c379a00000000000000000000000000000000000000000000000000000000081526004018080602001828103825260168152602001807f53656e646572206e6f7420617574686f72697a65642e0000000000000000000081525060200191505060405180910390fd5b6000600c60149054906101000a900460ff166003811115611b3757fe5b816003811115611b4357fe5b141515611b4f57600080fd5b6040518060a001604052808581526020018481526020016000151581526020016000815260200160011515815250600080820151816000019080519060200190611b9a9291906120f4565b506020820151816001015560408201518160020160006101000a81548160ff0219169083151502179055506060820151816003015560808201518160040160006101000a81548160ff0219169083151502179055509050503373ffffffffffffffffffffffffffffffffffffffff167faf87d7222487d956b269b71376e176ab81904b48c0206cce047f6bba27544619600c60149054906101000a900460ff1660405180826003811115611c4a57fe5b60ff16815260200191505060405180910390a250505050565b600c60009054906101000a900473ffffffffffffffffffffffffffffffffffffffff1681565b60098060000160009054906101000a900460ff16908060000160019054906101000a900473ffffffffffffffffffffffffffffffffffffffff16905082565b600c60159054906101000a900460ff1681565b600d5481565b60108060000154908060010154908060020154908060030154908060040154908060050154905086565b600c60149054906101000a900460ff1681565b600c60009054906101000a900473ffffffffffffffffffffffffffffffffffffffff168073ffffffffffffffffffffffffffffffffffffffff163373ffffffffffffffffffffffffffffffffffffffff16141515611de4576040517f08c379a00000000000000000000000000000000000000000000000000000000081526004018080602001828103825260168152602001807f53656e646572206e6f7420617574686f72697a65642e0000000000000000000081525060200191505060405180910390fd5b600960000160019054906101000a900473ffffffffffffffffffffffffffffffffffffffff1673ffffffffffffffffffffffffffffffffffffffff168273ffffffffffffffffffffffffffffffffffffffff16141515611eac576040517f08c379a000000000000000000000000000000000000000000000000000000000815260040180806020018281038252601d8152602001807f4d7573742073656e642061646472657373206f6620696e73757265652e00000081525060200191505060405180910390fd5b600560030160009054906101000a900460ff161515611eca57600080fd5b600960000160009054906101000a900460ff16151515611ee957600080fd5b6001600960000160006101000a81548160ff0219169083151502179055505050565b600b60009054906101000a900473ffffffffffffffffffffffffffffffffffffffff1681565b6005806000018054600181600116156101000203166002900480601f016020809104026020016040519081016040528092919081815260200182805460018160011615610100020316600290048015611fcb5780601f10611fa057610100808354040283529160200191611fcb565b820191906000526020600020905b815481529060010190602001808311611fae57829003601f168201915b5050505050908060010160009054906101000a900460ff16908060020154908060030160009054906101000a900460ff16905084565b6000816040516020018082805190602001908083835b60208310151561203c5780518252602082019150602081019050602083039250612017565b6001836020036101000a03801982511681845116808217855250505050505090500191505060405160208183030381529060405280519060200120836040516020018082805190602001908083835b6020831015156120b0578051825260208201915060208101905060208303925061208b565b6001836020036101000a0380198251168184511680821785525050505050509050019150506040516020818303038152906040528051906020012014905092915050565b828054600181600116156101000203166002900490600052602060002090601f016020900481019282601f1061213557805160ff1916838001178555612163565b82800160010185558215612163579182015b82811115612162578251825591602001919060010190612147565b5b5090506121709190612174565b5090565b61219691905b8082111561219257600081600090555060010161217a565b5090565b9056fe496e7375726565206d757374206e6f742068617665206265656e20626f6172646564207965742ea165627a7a7230582061038829c52c3a2bc5b2e2637b3ace7d04a32339fee6db5845122dcda6e505c70029",
  "source": "pragma solidity 0.5.5;\nimport \"./InsuranceContractManager.sol\";\n\ncontract LuggageInsuranceContract {\n    \n    //create a Flight datatype\n    struct Flight {\n        //flightNumber for insured luggage travel\n        string flightNumber;\n        //saves day of departure\n        uint departureDay;\n        //saves state flight landed in destination airport\n        bool landed;\n        //saves timestamp the flight is landed\n        uint timeLanded;\n        //flight is initialized\n        bool initialized;\n    }\n    \n    //create a Luggage datatype\n    struct Luggage {\n        //saves luggageID\n        string id;\n        //is the luggage onBelt in destination airport\n        bool onBelt; \n        //saves timestamp when luggage is on belt\n        uint timeOnBelt;\n        //luggage is initialized\n        bool initialized;\n    }\n    \n    //create a Insuree datatype\n    struct Insuree {\n        //insuree is boarded in departure airport\n        bool boarded;\n        //addressInsuree\n        address payable addressInsuree;\n    }\n    \n    // create a State enum \n    enum State {\n        //contract inactive till premium not paid, after premium paid active, can be revoked and is closed when insuree or insurance address gets balance\n        inactive, active, revoked, closed\n    }\n    \n    enum ClaimState{\n        none, delay, lost\n    }\n    \n    //store structs\n    Flight public flight;\n    Luggage public luggage;\n    Insuree public insuree;\n    \n    // save a InsuranceContractManager\n    InsuranceContractManager insuranceContractManagerInstance;\n    \n    // TODO:change address oracle when implementing oraclize\n    address public addressOracle;\n    address public addressBackend;\n    \n    //store enum\n    State public state;\n    ClaimState public claimState;\n    //overall contract balance\n    uint public balance;\n    //saves time when the Smart Contract is activated\n    uint timeContractActivated;\n    \n    //saves the timeDifference between flight.timelanded and luggage.timeOnBelt\n    uint public timeDifference;\n    //saves the timeLimit for LuggageLost\n    \n    InsuranceContractManager.InsuranceContractConditions public insuranceContractConditions;\n    \n    \n    //modifier for onlyBy condition\n    modifier onlyBy(address _account) {\n        require(msg.sender == _account, \"Sender not authorized.\");\n        _;\n    }\n    //modifier for ifState condition\n     modifier ifState(State _state) {\n        require(_state == state);\n        _;\n    }\n    //modifier for ifLanded condition\n    modifier ifLanded() {\n        require(flight.landed);\n        _;\n    }\n    \n    //event to show a contract for a certain addressInsuree was created\n    event ContractCreated(address indexed _addressInsuree, State _state);\n    //event to show premium was paid and contract activated\n    event PremiumPaid(uint _premium, State _state);\n    //event to show insurance amount was paid to insuree\n    event InsuranceAmountPaid(uint _amount, address _addressInsuree, State _state);\n    //event to show there was no claim as premium was paid to insurance\n    event NoClaim(State _state);\n    \n    //constructor \n    constructor(\n        address payable addressInsuree,\n        address backend,\n        uint premium,\n        uint amountDelay,\n        uint amountLost,\n        uint revokeTimeLimit,\n        uint timeLimitLuggageLost,\n        uint timeLimitForPayOut\n    ) public payable {\n        // require dao address\n        // require(addressOracle != msg.sender);\n        insuree = Insuree(false, addressInsuree);\n        insuranceContractManagerInstance = InsuranceContractManager(msg.sender);\n        \n        insuranceContractConditions = InsuranceContractManager.InsuranceContractConditions(\n            premium,\n            amountDelay,\n            amountLost,\n            revokeTimeLimit,\n            timeLimitLuggageLost,\n            timeLimitForPayOut\n        );\n        addressBackend = backend;\n        addressOracle = backend;\n        state = State.inactive;\n        claimState = ClaimState.none;\n    }\n    \n    //setFlight() function\n    function setFlight(\n        string memory flightNumber,\n        uint departureDay\n    ) public onlyBy(insuree.addressInsuree) ifState(State.inactive){\n        flight = Flight(\n            flightNumber,\n            departureDay,\n            false,\n            0, \n            true\n        );\n        //throw Event ContractCreated() \n        emit ContractCreated(msg.sender, state);\n    }\n    //payPremium() function\n    function payPremium() public payable onlyBy(insuree.addressInsuree) ifState(State.inactive) {\n        require(flight.initialized, \"Flight must be initialized.\");\n        require(msg.value == insuranceContractConditions.premium, \"Must send exact premium value.\");\n        balance += msg.value;\n        state = State.active;\n        timeContractActivated = now;\n         //throw Event PremiumPaid()\n        emit PremiumPaid(msg.value, state);\n    }\n     \n    //checkInLuggage() function\n    function checkInLuggage(string memory _luggageID) public onlyBy(addressBackend) ifState(State.active) {\n        require(!luggage.initialized);\n        luggage = Luggage(_luggageID, false, 0, true);\n    }\n    //revokeContract() function\n    function revokeContract() public onlyBy(insuree.addressInsuree) ifState(State.active) {\n        require(now <= timeContractActivated + insuranceContractConditions.revokeTimeLimit);\n        require(!insuree.boarded, \"Insuree must not have been boarded yet.\");\n        insuree.addressInsuree.transfer(balance);\n        state = State.revoked;\n    }\n    //boardingPassenger() function\n    function boardingPassenger(address _addressInsuree) public onlyBy(addressBackend) {\n        require(_addressInsuree == insuree.addressInsuree, \"Must send address of insuree.\");\n        require(luggage.initialized);\n        require(!insuree.boarded);\n        insuree.boarded = true;\n    }\n    //setFlightState() function\n    function setFlightState(string memory flightState) public onlyBy(addressOracle) {\n        require(insuree.boarded);\n        require(!flight.landed);\n        //compare the hashes of two strings in order to find out whether status is landed\n        if(compareStrings(flightState, \"LD\")){\n            flight.landed = true;\n            flight.timeLanded = now;\n            //setTimeOut function that triggers checkcailm function 1 hours after time landed\n        }else {\n            //ask oracle again in some time\n        }\n    }\n    //setLuggageState() function\n    function setLuggageState(string memory _luggageID, bool _onBelt) public onlyBy(addressBackend) ifState(State.active) ifLanded() {\n        require(compareStrings(_luggageID, luggage.id), \"Must be same luggage id.\");\n        require(!luggage.onBelt);\n        //check state onBelt\n        if(_onBelt == true){\n            luggage.onBelt = true;\n            luggage.timeOnBelt = now;\n            checkClaim();\n        }\n    }\n    function checkClaim() public payable ifState(State.active) ifLanded() {\n        //send premium to InsuranceContractManager Account\n        insuranceContractManagerInstance.receiveMoney.value(balance)();\n         // check luggage delay\n        if(luggage.onBelt) {\n            timeDifference = luggage.timeOnBelt - flight.timeLanded;\n            if (timeDifference > insuranceContractConditions.timeLimitForPayOut) {\n                //in case there is an delay throw InsuranceAmountPaid() and transfer insurance amount to insuree\n                state = State.closed;\n                claimState = ClaimState.delay;\n                insuranceContractManagerInstance.payout(insuranceContractConditions.amountDelay);\n                emit InsuranceAmountPaid(insuranceContractConditions.amountDelay, insuree.addressInsuree, state);\n            } else {\n                //in case there is no delay throw NoClaim and transfer premium to insurance\n                state = State.closed;\n                emit NoClaim(state);\n            }\n            //check luggage lost\n        } else if(now > flight.timeLanded + insuranceContractConditions.timeLimitLuggageLost){\n            //in case luggage is lost throw InsuranceAmountPaid and transfer insurance amount\n            state = State.closed;\n            claimState = ClaimState.lost;\n            insuranceContractManagerInstance.payout(insuranceContractConditions.amountLost);\n            emit InsuranceAmountPaid(insuranceContractConditions.amountLost, insuree.addressInsuree, state);\n        }\n    }\n    \n    //getState() function returns State, flight.landed, flight.initialized, luggage.onBelt and luggage.initialized\n    function getState() public view returns (State, bool, bool, bool, bool){\n        return (state, flight.landed, flight.initialized, luggage.onBelt, luggage.initialized);\n    }\n    \n    function getAddressInsuree() public view returns(address payable) {\n        return insuree.addressInsuree;\n    }\n    //compareStrings() function to compare strings by their hashes\n    function compareStrings(string memory a, string memory b) internal pure returns (bool){\n        return keccak256(abi.encodePacked(a)) == keccak256(abi.encodePacked(b));\n    }\n    //fallback function\n    function() external payable { }\n} ",
  "sourcePath": "/Users/anastasia.reimer/code/luggageInsuranceContract/contracts/LuggageInsuranceContract.sol",
  "compiler": {
    "name": "solc",
    "version": "0.5.5+commit.47a71e8f.Emscripten.clang"
  },
  "schemaVersion": "3.0.2",
  "updatedAt": "2019-03-19T20:54:10.963Z",
  "devdoc": {
    "methods": {}
  },
  "userdoc": {
    "methods": {}
  }
}