{
  "contractName": "LuggageInsuranceContract",
  "abi": [
    {
      "constant": true,
      "inputs": [],
      "name": "timeDifference",
      "outputs": [
        {
          "name": "",
          "type": "uint256"
        }
      ],
      "payable": false,
      "stateMutability": "view",
      "type": "function"
    },
    {
      "constant": true,
      "inputs": [],
      "name": "flightStatus",
      "outputs": [
        {
          "name": "",
          "type": "string"
        }
      ],
      "payable": false,
      "stateMutability": "view",
      "type": "function"
    },
    {
      "constant": true,
      "inputs": [],
      "name": "flight",
      "outputs": [
        {
          "name": "flightNumber",
          "type": "string"
        },
        {
          "name": "departureDay",
          "type": "uint256"
        },
        {
          "name": "plannedArrival",
          "type": "uint256"
        },
        {
          "name": "landed",
          "type": "bool"
        },
        {
          "name": "timeLanded",
          "type": "uint256"
        },
        {
          "name": "initialized",
          "type": "bool"
        }
      ],
      "payable": false,
      "stateMutability": "view",
      "type": "function"
    },
    {
      "constant": true,
      "inputs": [],
      "name": "addressBackend",
      "outputs": [
        {
          "name": "",
          "type": "address"
        }
      ],
      "payable": false,
      "stateMutability": "view",
      "type": "function"
    },
    {
      "constant": true,
      "inputs": [],
      "name": "insuree",
      "outputs": [
        {
          "name": "boarded",
          "type": "bool"
        },
        {
          "name": "addressInsuree",
          "type": "address"
        }
      ],
      "payable": false,
      "stateMutability": "view",
      "type": "function"
    },
    {
      "constant": true,
      "inputs": [],
      "name": "claimState",
      "outputs": [
        {
          "name": "",
          "type": "uint8"
        }
      ],
      "payable": false,
      "stateMutability": "view",
      "type": "function"
    },
    {
      "constant": true,
      "inputs": [],
      "name": "balance",
      "outputs": [
        {
          "name": "",
          "type": "uint256"
        }
      ],
      "payable": false,
      "stateMutability": "view",
      "type": "function"
    },
    {
      "constant": true,
      "inputs": [],
      "name": "insuranceContractConditions",
      "outputs": [
        {
          "name": "premium",
          "type": "uint256"
        },
        {
          "name": "amountDelay",
          "type": "uint256"
        },
        {
          "name": "amountLost",
          "type": "uint256"
        },
        {
          "name": "revokeTimeLimit",
          "type": "uint256"
        },
        {
          "name": "timeLimitLuggageLost",
          "type": "uint256"
        },
        {
          "name": "timeLimitForPayOut",
          "type": "uint256"
        }
      ],
      "payable": false,
      "stateMutability": "view",
      "type": "function"
    },
    {
      "constant": true,
      "inputs": [],
      "name": "state",
      "outputs": [
        {
          "name": "",
          "type": "uint8"
        }
      ],
      "payable": false,
      "stateMutability": "view",
      "type": "function"
    },
    {
      "constant": true,
      "inputs": [],
      "name": "addressOracle",
      "outputs": [
        {
          "name": "",
          "type": "address"
        }
      ],
      "payable": false,
      "stateMutability": "view",
      "type": "function"
    },
    {
      "constant": true,
      "inputs": [],
      "name": "luggage",
      "outputs": [
        {
          "name": "id",
          "type": "string"
        },
        {
          "name": "onBelt",
          "type": "bool"
        },
        {
          "name": "timeOnBelt",
          "type": "uint256"
        },
        {
          "name": "initialized",
          "type": "bool"
        }
      ],
      "payable": false,
      "stateMutability": "view",
      "type": "function"
    },
    {
      "inputs": [
        {
          "name": "addressInsuree",
          "type": "address"
        },
        {
          "name": "backend",
          "type": "address"
        },
        {
          "name": "premium",
          "type": "uint256"
        },
        {
          "name": "amountDelay",
          "type": "uint256"
        },
        {
          "name": "amountLost",
          "type": "uint256"
        },
        {
          "name": "revokeTimeLimit",
          "type": "uint256"
        },
        {
          "name": "timeLimitLuggageLost",
          "type": "uint256"
        },
        {
          "name": "timeLimitForPayOut",
          "type": "uint256"
        }
      ],
      "payable": true,
      "stateMutability": "payable",
      "type": "constructor"
    },
    {
      "payable": true,
      "stateMutability": "payable",
      "type": "fallback"
    },
    {
      "anonymous": false,
      "inputs": [
        {
          "indexed": true,
          "name": "_addressInsuree",
          "type": "address"
        },
        {
          "indexed": false,
          "name": "_state",
          "type": "uint8"
        }
      ],
      "name": "ContractCreated",
      "type": "event"
    },
    {
      "anonymous": false,
      "inputs": [
        {
          "indexed": false,
          "name": "_premium",
          "type": "uint256"
        },
        {
          "indexed": false,
          "name": "_state",
          "type": "uint8"
        }
      ],
      "name": "PremiumPaid",
      "type": "event"
    },
    {
      "anonymous": false,
      "inputs": [
        {
          "indexed": false,
          "name": "_amount",
          "type": "uint256"
        },
        {
          "indexed": false,
          "name": "_addressInsuree",
          "type": "address"
        },
        {
          "indexed": false,
          "name": "_state",
          "type": "uint8"
        }
      ],
      "name": "InsuranceAmountPaid",
      "type": "event"
    },
    {
      "anonymous": false,
      "inputs": [
        {
          "indexed": false,
          "name": "_state",
          "type": "uint8"
        }
      ],
      "name": "NoClaim",
      "type": "event"
    },
    {
      "anonymous": false,
      "inputs": [
        {
          "indexed": false,
          "name": "description",
          "type": "string"
        }
      ],
      "name": "LogNewOraclizeQuery",
      "type": "event"
    },
    {
      "anonymous": false,
      "inputs": [
        {
          "indexed": false,
          "name": "status",
          "type": "string"
        }
      ],
      "name": "LogFlightStatus",
      "type": "event"
    },
    {
      "anonymous": false,
      "inputs": [
        {
          "indexed": false,
          "name": "addressLuggageContract",
          "type": "address"
        },
        {
          "indexed": false,
          "name": "addressInsuree",
          "type": "address"
        }
      ],
      "name": "FlightLanded",
      "type": "event"
    },
    {
      "constant": false,
      "inputs": [
        {
          "name": "flightNumber",
          "type": "string"
        },
        {
          "name": "departureDay",
          "type": "uint256"
        },
        {
          "name": "plannedArrival",
          "type": "uint256"
        }
      ],
      "name": "setFlight",
      "outputs": [],
      "payable": false,
      "stateMutability": "nonpayable",
      "type": "function"
    },
    {
      "constant": false,
      "inputs": [],
      "name": "payPremium",
      "outputs": [],
      "payable": true,
      "stateMutability": "payable",
      "type": "function"
    },
    {
      "constant": false,
      "inputs": [
        {
          "name": "_luggageID",
          "type": "string"
        }
      ],
      "name": "checkInLuggage",
      "outputs": [],
      "payable": false,
      "stateMutability": "nonpayable",
      "type": "function"
    },
    {
      "constant": false,
      "inputs": [],
      "name": "revokeContract",
      "outputs": [],
      "payable": false,
      "stateMutability": "nonpayable",
      "type": "function"
    },
    {
      "constant": false,
      "inputs": [
        {
          "name": "_addressInsuree",
          "type": "address"
        }
      ],
      "name": "boardingPassenger",
      "outputs": [],
      "payable": false,
      "stateMutability": "nonpayable",
      "type": "function"
    },
    {
      "constant": false,
      "inputs": [
        {
          "name": "myid",
          "type": "bytes32"
        },
        {
          "name": "result",
          "type": "string"
        }
      ],
      "name": "__callback",
      "outputs": [],
      "payable": false,
      "stateMutability": "nonpayable",
      "type": "function"
    },
    {
      "constant": false,
      "inputs": [
        {
          "name": "_myid",
          "type": "bytes32"
        },
        {
          "name": "_result",
          "type": "string"
        },
        {
          "name": "_proof",
          "type": "bytes"
        }
      ],
      "name": "__callback",
      "outputs": [],
      "payable": false,
      "stateMutability": "nonpayable",
      "type": "function"
    },
    {
      "constant": false,
      "inputs": [
        {
          "name": "_luggageID",
          "type": "string"
        },
        {
          "name": "_onBelt",
          "type": "bool"
        }
      ],
      "name": "setLuggageState",
      "outputs": [],
      "payable": false,
      "stateMutability": "nonpayable",
      "type": "function"
    },
    {
      "constant": false,
      "inputs": [],
      "name": "checkClaim",
      "outputs": [],
      "payable": true,
      "stateMutability": "payable",
      "type": "function"
    },
    {
      "constant": true,
      "inputs": [],
      "name": "getState",
      "outputs": [
        {
          "name": "",
          "type": "uint8"
        },
        {
          "name": "",
          "type": "bool"
        },
        {
          "name": "",
          "type": "bool"
        },
        {
          "name": "",
          "type": "bool"
        },
        {
          "name": "",
          "type": "bool"
        }
      ],
      "payable": false,
      "stateMutability": "view",
      "type": "function"
    },
    {
      "constant": true,
      "inputs": [],
      "name": "getAddressInsuree",
      "outputs": [
        {
          "name": "",
          "type": "address"
        }
      ],
      "payable": false,
      "stateMutability": "view",
      "type": "function"
    }
  ],
  "bytecode": "0x60806040526040516101008062003f72833981018060405261010081101561002657600080fd5b81019080805190602001909291908051906020019092919080519060200190929190805190602001909291908051906020019092919080519060200190929190805190602001909291908051906020019092919050505060405180604001604052806000151581526020018973ffffffffffffffffffffffffffffffffffffffff16815250600f60008201518160000160006101000a81548160ff02191690831515021790555060208201518160000160016101000a81548173ffffffffffffffffffffffffffffffffffffffff021916908373ffffffffffffffffffffffffffffffffffffffff16021790555090505033601060006101000a81548173ffffffffffffffffffffffffffffffffffffffff021916908373ffffffffffffffffffffffffffffffffffffffff1602179055506040518060c00160405280878152602001868152602001858152602001848152602001838152602001828152506016600082015181600001556020820151816001015560408201518160020155606082015181600301556080820151816004015560a0820151816005015590505086601260006101000a81548173ffffffffffffffffffffffffffffffffffffffff021916908373ffffffffffffffffffffffffffffffffffffffff16021790555086601160006101000a81548173ffffffffffffffffffffffffffffffffffffffff021916908373ffffffffffffffffffffffffffffffffffffffff1602179055506000601260146101000a81548160ff0219169083600381111561026757fe5b02179055506000601260156101000a81548160ff0219169083600281111561028b57fe5b02179055505050505050505050613cca80620002a86000396000f3fe608060405260043610610152576000357c01000000000000000000000000000000000000000000000000000000009004806372e80d2e116100c8578063b69ef8a81161008c578063b69ef8a814610956578063bcced14214610981578063c19d93fb146109cf578063ccf8b7d214610a08578063f5159b6114610a59578063f974e49114610ab057610152565b806372e80d2e146107525780638e1af00b1461080d578063904c5e071461086457806390ed1d12146108bb5780639a7258091461091d57610152565b80632d9c46421161011a5780632d9c4642146102ca57806338bbfa50146103a657806366625bbd1461050f578063692e64aa146105265780636cf0729b146105fa5780636f09caed146106c257610152565b806317fd9ff8146101545780631865c57d1461015e5780631ea9a7bb146101c357806327dc297e146101ee57806329c08ba2146102c0575b005b61015c610b5d565b005b34801561016a57600080fd5b50610173611087565b6040518086600381111561018357fe5b60ff168152602001851515151581526020018415151515815260200183151515158152602001821515151581526020019550505050505060405180910390f35b3480156101cf57600080fd5b506101d86110fb565b6040518082815260200191505060405180910390f35b3480156101fa57600080fd5b506102be6004803603604081101561021157600080fd5b81019080803590602001909291908035906020019064010000000081111561023857600080fd5b82018360208201111561024a57600080fd5b8035906020019184600183028401116401000000008311171561026c57600080fd5b91908080601f016020809104026020016040519081016040528093929190818152602001838380828437600081840152601f19601f820116905080830192505050505050509192919290505050611101565b005b6102c8611488565b005b3480156102d657600080fd5b506103a4600480360360608110156102ed57600080fd5b810190808035906020019064010000000081111561030a57600080fd5b82018360208201111561031c57600080fd5b8035906020019184600183028401116401000000008311171561033e57600080fd5b91908080601f016020809104026020016040519081016040528093929190818152602001838380828437600081840152601f19601f8201169050808301925050505050505091929192908035906020019092919080359060200190929190505050611723565b005b3480156103b257600080fd5b5061050d600480360360608110156103c957600080fd5b8101908080359060200190929190803590602001906401000000008111156103f057600080fd5b82018360208201111561040257600080fd5b8035906020019184600183028401116401000000008311171561042457600080fd5b91908080601f016020809104026020016040519081016040528093929190818152602001838380828437600081840152601f19601f8201169050808301925050505050505091929192908035906020019064010000000081111561048757600080fd5b82018360208201111561049957600080fd5b803590602001918460018302840111640100000000831117156104bb57600080fd5b91908080601f016020809104026020016040519081016040528093929190818152602001838380828437600081840152601f19601f820116905080830192505050505050509192919290505050611947565b005b34801561051b57600080fd5b5061052461194c565b005b34801561053257600080fd5b506105f86004803603604081101561054957600080fd5b810190808035906020019064010000000081111561056657600080fd5b82018360208201111561057857600080fd5b8035906020019184600183028401116401000000008311171561059a57600080fd5b91908080601f016020809104026020016040519081016040528093929190818152602001838380828437600081840152601f19601f820116905080830192505050505050509192919290803515159060200190929190505050611b63565b005b34801561060657600080fd5b506106c06004803603602081101561061d57600080fd5b810190808035906020019064010000000081111561063a57600080fd5b82018360208201111561064c57600080fd5b8035906020019184600183028401116401000000008311171561066e57600080fd5b91908080601f016020809104026020016040519081016040528093929190818152602001838380828437600081840152601f19601f820116905080830192505050505050509192919290505050611dfa565b005b3480156106ce57600080fd5b506106d7611fad565b6040518080602001828103825283818151815260200191508051906020019080838360005b838110156107175780820151818401526020810190506106fc565b50505050905090810190601f1680156107445780820380516001836020036101000a031916815260200191505b509250505060405180910390f35b34801561075e57600080fd5b5061076761204b565b60405180806020018781526020018681526020018515151515815260200184815260200183151515158152602001828103825288818151815260200191508051906020019080838360005b838110156107cd5780820151818401526020810190506107b2565b50505050905090810190601f1680156107fa5780820380516001836020036101000a031916815260200191505b5097505050505050505060405180910390f35b34801561081957600080fd5b50610822612127565b604051808273ffffffffffffffffffffffffffffffffffffffff1673ffffffffffffffffffffffffffffffffffffffff16815260200191505060405180910390f35b34801561087057600080fd5b50610879612154565b604051808273ffffffffffffffffffffffffffffffffffffffff1673ffffffffffffffffffffffffffffffffffffffff16815260200191505060405180910390f35b3480156108c757600080fd5b506108d061217a565b60405180831515151581526020018273ffffffffffffffffffffffffffffffffffffffff1673ffffffffffffffffffffffffffffffffffffffff1681526020019250505060405180910390f35b34801561092957600080fd5b506109326121b9565b6040518082600281111561094257fe5b60ff16815260200191505060405180910390f35b34801561096257600080fd5b5061096b6121cc565b6040518082815260200191505060405180910390f35b34801561098d57600080fd5b506109966121d2565b60405180878152602001868152602001858152602001848152602001838152602001828152602001965050505050505060405180910390f35b3480156109db57600080fd5b506109e46121fc565b604051808260038111156109f457fe5b60ff16815260200191505060405180910390f35b348015610a1457600080fd5b50610a5760048036036020811015610a2b57600080fd5b81019080803573ffffffffffffffffffffffffffffffffffffffff16906020019092919050505061220f565b005b348015610a6557600080fd5b50610a6e6124a0565b604051808273ffffffffffffffffffffffffffffffffffffffff1673ffffffffffffffffffffffffffffffffffffffff16815260200191505060405180910390f35b348015610abc57600080fd5b50610ac56124c6565b60405180806020018515151515815260200184815260200183151515158152602001828103825286818151815260200191508051906020019080838360005b83811015610b1f578082015181840152602081019050610b04565b50505050905090810190601f168015610b4c5780820380516001836020036101000a031916815260200191505b509550505050505060405180910390f35b6001601260149054906101000a900460ff166003811115610b7a57fe5b816003811115610b8657fe5b141515610b9257600080fd5b600560030160009054906101000a900460ff161515610bb057600080fd5b601060009054906101000a900473ffffffffffffffffffffffffffffffffffffffff1673ffffffffffffffffffffffffffffffffffffffff16636d26ec186013546040518263ffffffff167c01000000000000000000000000000000000000000000000000000000000281526004016000604051808303818588803b158015610c3857600080fd5b505af1158015610c4c573d6000803e3d6000fd5b5050505050600b60010160009054906101000a900460ff1615610ebe57600560040154600b60020154036015819055506016600501546015541115610e40576003601260146101000a81548160ff02191690836003811115610caa57fe5b02179055506001601260156101000a81548160ff02191690836002811115610cce57fe5b0217905550601060009054906101000a900473ffffffffffffffffffffffffffffffffffffffff1673ffffffffffffffffffffffffffffffffffffffff1663e11523436016600101546040518263ffffffff167c010000000000000000000000000000000000000000000000000000000002815260040180828152602001915050600060405180830381600087803b158015610d6957600080fd5b505af1158015610d7d573d6000803e3d6000fd5b505050507ff1514e4ffdad910f4b453b7d21efcbbdfbae79984f038bcefa7cc193b4d8af7c601660010154600f60000160019054906101000a900473ffffffffffffffffffffffffffffffffffffffff16601260149054906101000a900460ff16604051808481526020018373ffffffffffffffffffffffffffffffffffffffff1673ffffffffffffffffffffffffffffffffffffffff168152602001826003811115610e2657fe5b60ff168152602001935050505060405180910390a1610eb9565b6003601260146101000a81548160ff02191690836003811115610e5f57fe5b02179055507fe6b6cdab431a62cabc34e815ea9dc1491ce23dca0816dc79a7e12472eea64a5b601260149054906101000a900460ff1660405180826003811115610ea557fe5b60ff16815260200191505060405180910390a15b611084565b60166004015460056004015401421115611083576003601260146101000a81548160ff02191690836003811115610ef157fe5b02179055506002601260156101000a81548160ff02191690836002811115610f1557fe5b0217905550601060009054906101000a900473ffffffffffffffffffffffffffffffffffffffff1673ffffffffffffffffffffffffffffffffffffffff1663e11523436016600201546040518263ffffffff167c010000000000000000000000000000000000000000000000000000000002815260040180828152602001915050600060405180830381600087803b158015610fb057600080fd5b505af1158015610fc4573d6000803e3d6000fd5b505050507ff1514e4ffdad910f4b453b7d21efcbbdfbae79984f038bcefa7cc193b4d8af7c601660020154600f60000160019054906101000a900473ffffffffffffffffffffffffffffffffffffffff16601260149054906101000a900460ff16604051808481526020018373ffffffffffffffffffffffffffffffffffffffff1673ffffffffffffffffffffffffffffffffffffffff16815260200182600381111561106d57fe5b60ff168152602001935050505060405180910390a15b5b50565b6000806000806000601260149054906101000a900460ff16600560030160009054906101000a900460ff166005800160009054906101000a900460ff16600b60010160009054906101000a900460ff16600b60030160009054906101000a900460ff16945094509450945094509091929394565b60155481565b611109612596565b8073ffffffffffffffffffffffffffffffffffffffff163373ffffffffffffffffffffffffffffffffffffffff161415156111ac576040517f08c379a00000000000000000000000000000000000000000000000000000000081526004018080602001828103825260168152602001807f53656e646572206e6f7420617574686f72697a65642e0000000000000000000081525060200191505060405180910390fd5b7f520d4ae78869196380618668a4f4393795e9f9509aa0f1fd89854ce1bcf1829c826040518080602001828103825283818151815260200191508051906020019080838360005b8381101561120e5780820151818401526020810190506111f3565b50505050905090810190601f16801561123b5780820380516001836020036101000a031916815260200191505b509250505060405180910390a181601c908051906020019061125e929190613a3a565b50611338601c8054600181600116156101000203166002900480601f0160208091040260200160405190810160405280929190818152602001828054600181600116156101000203166002900480156112f85780601f106112cd576101008083540402835291602001916112f8565b820191906000526020600020905b8154815290600101906020018083116112db57829003601f168201915b50505050506040518060400160405280600281526020017f4c44000000000000000000000000000000000000000000000000000000000000815250612909565b15611426576001600560030160006101000a81548160ff021916908315150217905550426005600401819055507f0f3ef0c2ecdcae0cd8984d9940e5209bd2e42fb6f48ff85f27e4cd08226aa6e130600f60000160019054906101000a900473ffffffffffffffffffffffffffffffffffffffff16604051808373ffffffffffffffffffffffffffffffffffffffff1673ffffffffffffffffffffffffffffffffffffffff1681526020018273ffffffffffffffffffffffffffffffffffffffff1673ffffffffffffffffffffffffffffffffffffffff1681526020019250505060405180910390a1611483565b6114816102586040518060400160405280600381526020017f55524c000000000000000000000000000000000000000000000000000000000081525060405180610120016040528060e28152602001613bbd60e291396129fc565b505b505050565b600f60000160019054906101000a900473ffffffffffffffffffffffffffffffffffffffff168073ffffffffffffffffffffffffffffffffffffffff163373ffffffffffffffffffffffffffffffffffffffff16141515611551576040517f08c379a00000000000000000000000000000000000000000000000000000000081526004018080602001828103825260168152602001807f53656e646572206e6f7420617574686f72697a65642e0000000000000000000081525060200191505060405180910390fd5b6000601260149054906101000a900460ff16600381111561156e57fe5b81600381111561157a57fe5b14151561158657600080fd5b6005800160009054906101000a900460ff16151561160c576040517f08c379a000000000000000000000000000000000000000000000000000000000815260040180806020018281038252601b8152602001807f466c69676874206d75737420626520696e697469616c697a65642e000000000081525060200191505060405180910390fd5b60166000015434141515611688576040517f08c379a000000000000000000000000000000000000000000000000000000000815260040180806020018281038252601e8152602001807f4d7573742073656e64206578616374207072656d69756d2076616c75652e000081525060200191505060405180910390fd5b346013600082825401925050819055506001601260146101000a81548160ff021916908360038111156116b757fe5b0217905550426014819055507fd30f8750c53efefdbcf67ccd115e87b7ddb491b5c00b0cd4ad282870a197492934601260149054906101000a900460ff166040518083815260200182600381111561170b57fe5b60ff1681526020019250505060405180910390a15050565b600f60000160019054906101000a900473ffffffffffffffffffffffffffffffffffffffff168073ffffffffffffffffffffffffffffffffffffffff163373ffffffffffffffffffffffffffffffffffffffff161415156117ec576040517f08c379a00000000000000000000000000000000000000000000000000000000081526004018080602001828103825260168152602001807f53656e646572206e6f7420617574686f72697a65642e0000000000000000000081525060200191505060405180910390fd5b6000601260149054906101000a900460ff16600381111561180957fe5b81600381111561181557fe5b14151561182157600080fd5b6040518060c00160405280868152602001858152602001848152602001600015158152602001600081526020016001151581525060056000820151816000019080519060200190611873929190613aba565b50602082015181600101556040820151816002015560608201518160030160006101000a81548160ff0219169083151502179055506080820151816004015560a08201518160050160006101000a81548160ff0219169083151502179055509050503373ffffffffffffffffffffffffffffffffffffffff167faf87d7222487d956b269b71376e176ab81904b48c0206cce047f6bba27544619601260149054906101000a900460ff166040518082600381111561192d57fe5b60ff16815260200191505060405180910390a25050505050565b505050565b600f60000160019054906101000a900473ffffffffffffffffffffffffffffffffffffffff168073ffffffffffffffffffffffffffffffffffffffff163373ffffffffffffffffffffffffffffffffffffffff16141515611a15576040517f08c379a00000000000000000000000000000000000000000000000000000000081526004018080602001828103825260168152602001807f53656e646572206e6f7420617574686f72697a65642e0000000000000000000081525060200191505060405180910390fd5b6001601260149054906101000a900460ff166003811115611a3257fe5b816003811115611a3e57fe5b141515611a4a57600080fd5b601660030154601454014211151515611a6257600080fd5b600f60000160009054906101000a900460ff16151515611acd576040517f08c379a0000000000000000000000000000000000000000000000000000000008152600401808060200182810382526027815260200180613b966027913960400191505060405180910390fd5b600f60000160019054906101000a900473ffffffffffffffffffffffffffffffffffffffff1673ffffffffffffffffffffffffffffffffffffffff166108fc6013549081150290604051600060405180830381858888f19350505050158015611b3a573d6000803e3d6000fd5b506002601260146101000a81548160ff02191690836003811115611b5a57fe5b02179055505050565b601260009054906101000a900473ffffffffffffffffffffffffffffffffffffffff168073ffffffffffffffffffffffffffffffffffffffff163373ffffffffffffffffffffffffffffffffffffffff16141515611c29576040517f08c379a00000000000000000000000000000000000000000000000000000000081526004018080602001828103825260168152602001807f53656e646572206e6f7420617574686f72697a65642e0000000000000000000081525060200191505060405180910390fd5b6001601260149054906101000a900460ff166003811115611c4657fe5b816003811115611c5257fe5b141515611c5e57600080fd5b600560030160009054906101000a900460ff161515611c7c57600080fd5b611d2384600b6000018054600181600116156101000203166002900480601f016020809104026020016040519081016040528092919081815260200182805460018160011615610100020316600290048015611d195780601f10611cee57610100808354040283529160200191611d19565b820191906000526020600020905b815481529060010190602001808311611cfc57829003601f168201915b5050505050612909565b1515611d97576040517f08c379a00000000000000000000000000000000000000000000000000000000081526004018080602001828103825260188152602001807f4d7573742062652073616d65206c7567676167652069642e000000000000000081525060200191505060405180910390fd5b600b60010160009054906101000a900460ff16151515611db657600080fd5b600115158315151415611df4576001600b60010160006101000a81548160ff02191690831515021790555042600b60020181905550611df3610b5d565b5b50505050565b601260009054906101000a900473ffffffffffffffffffffffffffffffffffffffff168073ffffffffffffffffffffffffffffffffffffffff163373ffffffffffffffffffffffffffffffffffffffff16141515611ec0576040517f08c379a00000000000000000000000000000000000000000000000000000000081526004018080602001828103825260168152602001807f53656e646572206e6f7420617574686f72697a65642e0000000000000000000081525060200191505060405180910390fd5b6001601260149054906101000a900460ff166003811115611edd57fe5b816003811115611ee957fe5b141515611ef557600080fd5b600b60030160009054906101000a900460ff16151515611f1457600080fd5b60405180608001604052808481526020016000151581526020016000815260200160011515815250600b6000820151816000019080519060200190611f5a929190613aba565b5060208201518160010160006101000a81548160ff0219169083151502179055506040820151816002015560608201518160030160006101000a81548160ff021916908315150217905550905050505050565b601c8054600181600116156101000203166002900480601f0160208091040260200160405190810160405280929190818152602001828054600181600116156101000203166002900480156120435780601f1061201857610100808354040283529160200191612043565b820191906000526020600020905b81548152906001019060200180831161202657829003601f168201915b505050505081565b6005806000018054600181600116156101000203166002900480601f0160208091040260200160405190810160405280929190818152602001828054600181600116156101000203166002900480156120e55780601f106120ba576101008083540402835291602001916120e5565b820191906000526020600020905b8154815290600101906020018083116120c857829003601f168201915b5050505050908060010154908060020154908060030160009054906101000a900460ff16908060040154908060050160009054906101000a900460ff16905086565b6000600f60000160019054906101000a900473ffffffffffffffffffffffffffffffffffffffff16905090565b601260009054906101000a900473ffffffffffffffffffffffffffffffffffffffff1681565b600f8060000160009054906101000a900460ff16908060000160019054906101000a900473ffffffffffffffffffffffffffffffffffffffff16905082565b601260159054906101000a900460ff1681565b60135481565b60168060000154908060010154908060020154908060030154908060040154908060050154905086565b601260149054906101000a900460ff1681565b601260009054906101000a900473ffffffffffffffffffffffffffffffffffffffff168073ffffffffffffffffffffffffffffffffffffffff163373ffffffffffffffffffffffffffffffffffffffff161415156122d5576040517f08c379a00000000000000000000000000000000000000000000000000000000081526004018080602001828103825260168152602001807f53656e646572206e6f7420617574686f72697a65642e0000000000000000000081525060200191505060405180910390fd5b600f60000160019054906101000a900473ffffffffffffffffffffffffffffffffffffffff1673ffffffffffffffffffffffffffffffffffffffff168273ffffffffffffffffffffffffffffffffffffffff1614151561239d576040517f08c379a000000000000000000000000000000000000000000000000000000000815260040180806020018281038252601d8152602001807f4d7573742073656e642061646472657373206f6620696e73757265652e00000081525060200191505060405180910390fd5b600b60030160009054906101000a900460ff1615156123bb57600080fd5b600f60000160009054906101000a900460ff161515156123da57600080fd5b6001600f60000160006101000a81548160ff0219169083151502179055507f621c2856e3b87f81235f8ac8a22bbb40a0142961960710d00b2b6c380902b57e604051808060200182810382526036815260200180613b606036913960400191505060405180910390a161249b6040518060400160405280600381526020017f55524c000000000000000000000000000000000000000000000000000000000081525060405180610120016040528060e28152602001613bbd60e29139612fb5565b505050565b601160009054906101000a900473ffffffffffffffffffffffffffffffffffffffff1681565b600b806000018054600181600116156101000203166002900480601f0160208091040260200160405190810160405280929190818152602001828054600181600116156101000203166002900480156125605780601f1061253557610100808354040283529160200191612560565b820191906000526020600020905b81548152906001019060200180831161254357829003601f168201915b5050505050908060010160009054906101000a900460ff16908060020154908060030160009054906101000a900460ff16905084565b60008073ffffffffffffffffffffffffffffffffffffffff16600160009054906101000a900473ffffffffffffffffffffffffffffffffffffffff1673ffffffffffffffffffffffffffffffffffffffff16148061261e5750600061261c600160009054906101000a900473ffffffffffffffffffffffffffffffffffffffff1661356e565b145b1561262f5761262d6000613579565b505b600160009054906101000a900473ffffffffffffffffffffffffffffffffffffffff1673ffffffffffffffffffffffffffffffffffffffff166338cc48316040518163ffffffff167c0100000000000000000000000000000000000000000000000000000000028152600401602060405180830381600087803b1580156126b557600080fd5b505af11580156126c9573d6000803e3d6000fd5b505050506040513d60208110156126df57600080fd5b810190808051906020019092919050505073ffffffffffffffffffffffffffffffffffffffff166000809054906101000a900473ffffffffffffffffffffffffffffffffffffffff1673ffffffffffffffffffffffffffffffffffffffff1614151561284657600160009054906101000a900473ffffffffffffffffffffffffffffffffffffffff1673ffffffffffffffffffffffffffffffffffffffff166338cc48316040518163ffffffff167c0100000000000000000000000000000000000000000000000000000000028152600401602060405180830381600087803b1580156127cb57600080fd5b505af11580156127df573d6000803e3d6000fd5b505050506040513d60208110156127f557600080fd5b81019080805190602001909291905050506000806101000a81548173ffffffffffffffffffffffffffffffffffffffff021916908373ffffffffffffffffffffffffffffffffffffffff1602179055505b6000809054906101000a900473ffffffffffffffffffffffffffffffffffffffff1673ffffffffffffffffffffffffffffffffffffffff1663c281d19e6040518163ffffffff167c010000000000000000000000000000000000000000000000000000000002815260040160206040518083038186803b1580156128c957600080fd5b505afa1580156128dd573d6000803e3d6000fd5b505050506040513d60208110156128f357600080fd5b8101908080519060200190929190505050905090565b6000816040516020018082805190602001908083835b602083101515612944578051825260208201915060208101905060208303925061291f565b6001836020036101000a03801982511681845116808217855250505050505090500191505060405160208183030381529060405280519060200120836040516020018082805190602001908083835b6020831015156129b85780518252602082019150602081019050602083039250612993565b6001836020036101000a0380198251168184511680821785525050505050509050019150506040516020818303038152906040528051906020012014905092915050565b60008073ffffffffffffffffffffffffffffffffffffffff16600160009054906101000a900473ffffffffffffffffffffffffffffffffffffffff1673ffffffffffffffffffffffffffffffffffffffff161480612a8457506000612a82600160009054906101000a900473ffffffffffffffffffffffffffffffffffffffff1661356e565b145b15612a9557612a936000613579565b505b600160009054906101000a900473ffffffffffffffffffffffffffffffffffffffff1673ffffffffffffffffffffffffffffffffffffffff166338cc48316040518163ffffffff167c0100000000000000000000000000000000000000000000000000000000028152600401602060405180830381600087803b158015612b1b57600080fd5b505af1158015612b2f573d6000803e3d6000fd5b505050506040513d6020811015612b4557600080fd5b810190808051906020019092919050505073ffffffffffffffffffffffffffffffffffffffff166000809054906101000a900473ffffffffffffffffffffffffffffffffffffffff1673ffffffffffffffffffffffffffffffffffffffff16141515612cac57600160009054906101000a900473ffffffffffffffffffffffffffffffffffffffff1673ffffffffffffffffffffffffffffffffffffffff166338cc48316040518163ffffffff167c0100000000000000000000000000000000000000000000000000000000028152600401602060405180830381600087803b158015612c3157600080fd5b505af1158015612c45573d6000803e3d6000fd5b505050506040513d6020811015612c5b57600080fd5b81019080805190602001909291905050506000806101000a81548173ffffffffffffffffffffffffffffffffffffffff021916908373ffffffffffffffffffffffffffffffffffffffff1602179055505b60008060009054906101000a900473ffffffffffffffffffffffffffffffffffffffff1673ffffffffffffffffffffffffffffffffffffffff1663524f3889856040518263ffffffff167c01000000000000000000000000000000000000000000000000000000000281526004018080602001828103825283818151815260200191508051906020019080838360005b83811015612d57578082015181840152602081019050612d3c565b50505050905090810190601f168015612d845780820380516001836020036101000a031916815260200191505b5092505050602060405180830381600087803b158015612da357600080fd5b505af1158015612db7573d6000803e3d6000fd5b505050506040513d6020811015612dcd57600080fd5b8101908080519060200190929190505050905062030d403a02670de0b6b3a764000001811115612e04576000600102915050612fae565b6000809054906101000a900473ffffffffffffffffffffffffffffffffffffffff1673ffffffffffffffffffffffffffffffffffffffff1663adf59f99828787876040518563ffffffff167c0100000000000000000000000000000000000000000000000000000000028152600401808481526020018060200180602001838103835285818151815260200191508051906020019080838360005b83811015612eba578082015181840152602081019050612e9f565b50505050905090810190601f168015612ee75780820380516001836020036101000a031916815260200191505b50838103825284818151815260200191508051906020019080838360005b83811015612f20578082015181840152602081019050612f05565b50505050905090810190601f168015612f4d5780820380516001836020036101000a031916815260200191505b50955050505050506020604051808303818588803b158015612f6e57600080fd5b505af1158015612f82573d6000803e3d6000fd5b50505050506040513d6020811015612f9957600080fd5b81019080805190602001909291905050509150505b9392505050565b60008073ffffffffffffffffffffffffffffffffffffffff16600160009054906101000a900473ffffffffffffffffffffffffffffffffffffffff1673ffffffffffffffffffffffffffffffffffffffff16148061303d5750600061303b600160009054906101000a900473ffffffffffffffffffffffffffffffffffffffff1661356e565b145b1561304e5761304c6000613579565b505b600160009054906101000a900473ffffffffffffffffffffffffffffffffffffffff1673ffffffffffffffffffffffffffffffffffffffff166338cc48316040518163ffffffff167c0100000000000000000000000000000000000000000000000000000000028152600401602060405180830381600087803b1580156130d457600080fd5b505af11580156130e8573d6000803e3d6000fd5b505050506040513d60208110156130fe57600080fd5b810190808051906020019092919050505073ffffffffffffffffffffffffffffffffffffffff166000809054906101000a900473ffffffffffffffffffffffffffffffffffffffff1673ffffffffffffffffffffffffffffffffffffffff1614151561326557600160009054906101000a900473ffffffffffffffffffffffffffffffffffffffff1673ffffffffffffffffffffffffffffffffffffffff166338cc48316040518163ffffffff167c0100000000000000000000000000000000000000000000000000000000028152600401602060405180830381600087803b1580156131ea57600080fd5b505af11580156131fe573d6000803e3d6000fd5b505050506040513d602081101561321457600080fd5b81019080805190602001909291905050506000806101000a81548173ffffffffffffffffffffffffffffffffffffffff021916908373ffffffffffffffffffffffffffffffffffffffff1602179055505b60008060009054906101000a900473ffffffffffffffffffffffffffffffffffffffff1673ffffffffffffffffffffffffffffffffffffffff1663524f3889856040518263ffffffff167c01000000000000000000000000000000000000000000000000000000000281526004018080602001828103825283818151815260200191508051906020019080838360005b838110156133105780820151818401526020810190506132f5565b50505050905090810190601f16801561333d5780820380516001836020036101000a031916815260200191505b5092505050602060405180830381600087803b15801561335c57600080fd5b505af1158015613370573d6000803e3d6000fd5b505050506040513d602081101561338657600080fd5b8101908080519060200190929190505050905062030d403a02670de0b6b3a7640000018111156133bd576000600102915050613568565b6000809054906101000a900473ffffffffffffffffffffffffffffffffffffffff1673ffffffffffffffffffffffffffffffffffffffff1663adf59f9982600087876040518563ffffffff167c0100000000000000000000000000000000000000000000000000000000028152600401808481526020018060200180602001838103835285818151815260200191508051906020019080838360005b83811015613474578082015181840152602081019050613459565b50505050905090810190601f1680156134a15780820380516001836020036101000a031916815260200191505b50838103825284818151815260200191508051906020019080838360005b838110156134da5780820151818401526020810190506134bf565b50505050905090810190601f1680156135075780820380516001836020036101000a031916815260200191505b50955050505050506020604051808303818588803b15801561352857600080fd5b505af115801561353c573d6000803e3d6000fd5b50505050506040513d602081101561355357600080fd5b81019080805190602001909291905050509150505b92915050565b6000813b9050919050565b600061358361358a565b9050919050565b6000806135aa731d3b2638a7cc9f2cb3d298a3da7a90b67e5506ed61356e565b111561364c57731d3b2638a7cc9f2cb3d298a3da7a90b67e5506ed600160006101000a81548173ffffffffffffffffffffffffffffffffffffffff021916908373ffffffffffffffffffffffffffffffffffffffff1602179055506136436040518060400160405280600b81526020017f6574685f6d61696e6e6574000000000000000000000000000000000000000000815250613a20565b60019050613a1d565b600061366b73c03a2615d5efaf5f49f60b7bb6583eaec212fdf161356e565b111561370d5773c03a2615d5efaf5f49f60b7bb6583eaec212fdf1600160006101000a81548173ffffffffffffffffffffffffffffffffffffffff021916908373ffffffffffffffffffffffffffffffffffffffff1602179055506137046040518060400160405280600c81526020017f6574685f726f707374656e330000000000000000000000000000000000000000815250613a20565b60019050613a1d565b600061372c73b7a07bcf2ba2f2703b24c0691b5278999c59ac7e61356e565b11156137ce5773b7a07bcf2ba2f2703b24c0691b5278999c59ac7e600160006101000a81548173ffffffffffffffffffffffffffffffffffffffff021916908373ffffffffffffffffffffffffffffffffffffffff1602179055506137c56040518060400160405280600981526020017f6574685f6b6f76616e0000000000000000000000000000000000000000000000815250613a20565b60019050613a1d565b60006137ed73146500cfd35b22e4a392fe0adc06de1a1368ed4861356e565b111561388f5773146500cfd35b22e4a392fe0adc06de1a1368ed48600160006101000a81548173ffffffffffffffffffffffffffffffffffffffff021916908373ffffffffffffffffffffffffffffffffffffffff1602179055506138866040518060400160405280600b81526020017f6574685f72696e6b656279000000000000000000000000000000000000000000815250613a20565b60019050613a1d565b60006138ae736f485c8bf6fc43ea212e93bbf8ce046c7f1cb47561356e565b111561391257736f485c8bf6fc43ea212e93bbf8ce046c7f1cb475600160006101000a81548173ffffffffffffffffffffffffffffffffffffffff021916908373ffffffffffffffffffffffffffffffffffffffff16021790555060019050613a1d565b60006139317320e12a1f859b3feae5fb2a0a32c18f5a65555bbf61356e565b1115613995577320e12a1f859b3feae5fb2a0a32c18f5a65555bbf600160006101000a81548173ffffffffffffffffffffffffffffffffffffffff021916908373ffffffffffffffffffffffffffffffffffffffff16021790555060019050613a1d565b60006139b47351efaf4c8b3c9afbd5ab9f4bbc82784ab6ef8faa61356e565b1115613a18577351efaf4c8b3c9afbd5ab9f4bbc82784ab6ef8faa600160006101000a81548173ffffffffffffffffffffffffffffffffffffffff021916908373ffffffffffffffffffffffffffffffffffffffff16021790555060019050613a1d565b600090505b90565b8060029080519060200190613a36929190613a3a565b5050565b828054600181600116156101000203166002900490600052602060002090601f016020900481019282601f10613a7b57805160ff1916838001178555613aa9565b82800160010185558215613aa9579182015b82811115613aa8578251825591602001919060010190613a8d565b5b509050613ab69190613b3a565b5090565b828054600181600116156101000203166002900490600052602060002090601f016020900481019282601f10613afb57805160ff1916838001178555613b29565b82800160010185558215613b29579182015b82811115613b28578251825591602001919060010190613b0d565b5b509050613b369190613b3a565b5090565b613b5c91905b80821115613b58576000816000905550600101613b40565b5090565b9056fe4f7261636c697a65207175657279207761732073656e742c207374616e64696e6720627920666f722074686520616e737765722e2e2e496e7375726565206d757374206e6f742068617665206265656e20626f6172646564207965742e6a736f6e2868747470733a2f2f6f7263616c697a652d6261636b656e642d746573742e6865726f6b756170702e636f6d2f666c696768743f6170695f746f6b656e3d6230336262383430626237623866653331653062363965613863323461616236343934353063306161376665323236353663626631653938306131623732396126666c696768746e756d6265723d4c483230333726646174653d323031392d30332d3136292e646174612e466c696768745374617475735265736f757263652e466c69676874732e466c696768742e466c696768745374617475732e436f6465a165627a7a723058200de53881133be5641142b7bce61fb208c6df9b48c2ca1fe3af2b9ca8992cf6fc0029",
  "source": "pragma solidity 0.5.5;\nimport \"./InsuranceContractManager.sol\";\nimport \"./oraclize/oraclizeAPI_0.5.sol\";\n\ncontract LuggageInsuranceContract is usingOraclize {\n    \n    //create a Flight datatype\n    struct Flight {\n        //flightNumber for insured luggage travel\n        string flightNumber;\n        //saves day of departure\n        uint departureDay;\n        uint plannedArrival;\n        //saves state flight landed in destination airport\n        bool landed;\n        //saves timestamp the flight is landed\n        uint timeLanded;\n        //flight is initialized\n        bool initialized;\n    }\n    \n    //create a Luggage datatype\n    struct Luggage {\n        //saves luggageID\n        string id;\n        //is the luggage onBelt in destination airport\n        bool onBelt; \n        //saves timestamp when luggage is on belt\n        uint timeOnBelt;\n        //luggage is initialized\n        bool initialized;\n    }\n    \n    //create a Insuree datatype\n    struct Insuree {\n        //insuree is boarded in departure airport\n        bool boarded;\n        //addressInsuree\n        address payable addressInsuree;\n    }\n    \n    // create a State enum \n    enum State {\n        //contract inactive till premium not paid, after premium paid active, can be revoked and is closed when insuree or insurance address gets balance\n        inactive, active, revoked, closed\n    }\n    \n    enum ClaimState{\n        none, delay, lost\n    }\n    \n    //store structs\n    Flight public flight;\n    Luggage public luggage;\n    Insuree public insuree;\n    \n    // save a InsuranceContractManager\n    InsuranceContractManager insuranceContractManagerInstance;\n    \n    // TODO:change address oracle when implementing oraclize\n    address public addressOracle;\n    address public addressBackend;\n    \n    //store enum\n    State public state;\n    ClaimState public claimState;\n    //overall contract balance\n    uint public balance;\n    //saves time when the Smart Contract is activated\n    uint timeContractActivated;\n    \n    //saves the timeDifference between flight.timelanded and luggage.timeOnBelt\n    uint public timeDifference;\n    //saves the timeLimit for LuggageLost\n    \n    InsuranceContractManager.InsuranceContractConditions public insuranceContractConditions;\n    \n    \n    //modifier for onlyBy condition\n    modifier onlyBy(address _account) {\n        require(msg.sender == _account, \"Sender not authorized.\");\n        _;\n    }\n    //modifier for ifState condition\n     modifier ifState(State _state) {\n        require(_state == state);\n        _;\n    }\n    //modifier for ifLanded condition\n    modifier ifLanded() {\n        require(flight.landed);\n        _;\n    }\n    \n    //event to show a contract for a certain addressInsuree was created\n    event ContractCreated(address indexed _addressInsuree, State _state);\n    //event to show premium was paid and contract activated\n    event PremiumPaid(uint _premium, State _state);\n    //event to show insurance amount was paid to insuree\n    event InsuranceAmountPaid(uint _amount, address _addressInsuree, State _state);\n    //event to show there was no claim as premium was paid to insurance\n    event NoClaim(State _state);\n    event LogNewOraclizeQuery(string description);\n    event LogFlightStatus(string status);\n    event FlightLanded(address addressLuggageContract, address addressInsuree);\n    string public flightStatus;\n\n\n    //constructor \n    constructor(\n        address payable addressInsuree,\n        address backend,\n        uint premium,\n        uint amountDelay,\n        uint amountLost,\n        uint revokeTimeLimit,\n        uint timeLimitLuggageLost,\n        uint timeLimitForPayOut\n    ) public payable {\n        // require dao address\n        // require(addressOracle != msg.sender);\n        insuree = Insuree(false, addressInsuree);\n        insuranceContractManagerInstance = InsuranceContractManager(msg.sender);\n        \n        insuranceContractConditions = InsuranceContractManager.InsuranceContractConditions(\n            premium,\n            amountDelay,\n            amountLost,\n            revokeTimeLimit,\n            timeLimitLuggageLost,\n            timeLimitForPayOut\n        );\n        addressBackend = backend;\n        addressOracle = backend;\n        state = State.inactive;\n        claimState = ClaimState.none;\n    }\n    \n    //setFlight() function\n    function setFlight(\n        string memory flightNumber,\n        uint departureDay,\n        uint plannedArrival\n    ) public onlyBy(insuree.addressInsuree) ifState(State.inactive){\n        flight = Flight(\n            flightNumber,\n            departureDay,\n            plannedArrival,\n            false,\n            0, \n            true\n        );\n        //throw Event ContractCreated() \n        emit ContractCreated(msg.sender, state);\n    }\n    //payPremium() function\n    function payPremium() public payable onlyBy(insuree.addressInsuree) ifState(State.inactive) {\n        require(flight.initialized, \"Flight must be initialized.\");\n        require(msg.value == insuranceContractConditions.premium, \"Must send exact premium value.\");\n        balance += msg.value;\n        state = State.active;\n        timeContractActivated = now;\n         //throw Event PremiumPaid()\n        emit PremiumPaid(msg.value, state);\n    }\n     \n    //checkInLuggage() function\n    function checkInLuggage(string memory _luggageID) public onlyBy(addressBackend) ifState(State.active) {\n        require(!luggage.initialized);\n        luggage = Luggage(_luggageID, false, 0, true);\n    }\n    //revokeContract() function\n    function revokeContract() public onlyBy(insuree.addressInsuree) ifState(State.active) {\n        require(now <= timeContractActivated + insuranceContractConditions.revokeTimeLimit);\n        require(!insuree.boarded, \"Insuree must not have been boarded yet.\");\n        insuree.addressInsuree.transfer(balance);\n        state = State.revoked;\n    }\n    //boardingPassenger() function\n    function boardingPassenger(address _addressInsuree) public onlyBy(addressBackend) {\n        require(_addressInsuree == insuree.addressInsuree, \"Must send address of insuree.\");\n        require(luggage.initialized);\n        require(!insuree.boarded);\n        insuree.boarded = true;\n        // oraclize query\n        emit LogNewOraclizeQuery(\"Oraclize query was sent, standing by for the answer...\");\n        // TODO: tokenize call\n        oraclize_query(\"URL\", \"json(https://orcalize-backend-test.herokuapp.com/flight?api_token=b03bb840bb7b8fe31e0b69ea8c24aab649450c0aa7fe22656cbf1e980a1b729a&flightnumber=LH2037&date=2019-03-16).data.FlightStatusResource.Flights.Flight.FlightStatus.Code\");\n    }\n\n    function __callback(bytes32 myid, string memory result) public onlyBy(oraclize_cbAddress()) {\n        // require(msg.sender == oraclize_cbAddress());\n        emit LogFlightStatus(result);\n        flightStatus = result;\n        if(compareStrings(flightStatus, \"LD\")){\n            flight.landed = true;\n            flight.timeLanded = now;\n            emit FlightLanded(address(this), insuree.addressInsuree);\n        } else {\n            // TODO: tokenize call\n            // update flight state all 10 minutes as long as the flight is not landed\n            oraclize_query(600,\"URL\", \"json(https://orcalize-backend-test.herokuapp.com/flight?api_token=b03bb840bb7b8fe31e0b69ea8c24aab649450c0aa7fe22656cbf1e980a1b729a&flightnumber=LH2037&date=2019-03-16).data.FlightStatusResource.Flights.Flight.FlightStatus.Code\");\n        }\n    }\n\n    //setLuggageState() function\n    function setLuggageState(string memory _luggageID, bool _onBelt) public onlyBy(addressBackend) ifState(State.active) ifLanded() {\n        require(compareStrings(_luggageID, luggage.id), \"Must be same luggage id.\");\n        require(!luggage.onBelt);\n        //check state onBelt\n        if(_onBelt == true){\n            luggage.onBelt = true;\n            luggage.timeOnBelt = now;\n            checkClaim();\n        }\n    }\n    function checkClaim() public payable ifState(State.active) ifLanded() {\n        //send premium to InsuranceContractManager Account\n        insuranceContractManagerInstance.receiveMoney.value(balance)();\n         // check luggage delay\n        if(luggage.onBelt) {\n            timeDifference = luggage.timeOnBelt - flight.timeLanded;\n            if (timeDifference > insuranceContractConditions.timeLimitForPayOut) {\n                //in case there is an delay throw InsuranceAmountPaid() and transfer insurance amount to insuree\n                state = State.closed;\n                claimState = ClaimState.delay;\n                insuranceContractManagerInstance.payout(insuranceContractConditions.amountDelay);\n                emit InsuranceAmountPaid(insuranceContractConditions.amountDelay, insuree.addressInsuree, state);\n            } else {\n                //in case there is no delay throw NoClaim and transfer premium to insurance\n                state = State.closed;\n                emit NoClaim(state);\n            }\n            //check luggage lost\n        } else if(now > flight.timeLanded + insuranceContractConditions.timeLimitLuggageLost){\n            //in case luggage is lost throw InsuranceAmountPaid and transfer insurance amount\n            state = State.closed;\n            claimState = ClaimState.lost;\n            insuranceContractManagerInstance.payout(insuranceContractConditions.amountLost);\n            emit InsuranceAmountPaid(insuranceContractConditions.amountLost, insuree.addressInsuree, state);\n        }\n    }\n    \n    //getState() function returns State, flight.landed, flight.initialized, luggage.onBelt and luggage.initialized\n    function getState() public view returns (State, bool, bool, bool, bool){\n        return (state, flight.landed, flight.initialized, luggage.onBelt, luggage.initialized);\n    }\n    \n    function getAddressInsuree() public view returns(address payable) {\n        return insuree.addressInsuree;\n    }\n    //compareStrings() function to compare strings by their hashes\n    function compareStrings(string memory a, string memory b) internal pure returns (bool){\n        return keccak256(abi.encodePacked(a)) == keccak256(abi.encodePacked(b));\n    }\n    //fallback function\n    function() external payable { }\n} ",
  "sourcePath": "/Users/anastasia.reimer/code/luggageInsuranceContract/contracts/LuggageInsuranceContract.sol",
  "compiler": {
    "name": "solc",
    "version": "0.5.5+commit.47a71e8f.Emscripten.clang"
  },
  "schemaVersion": "3.0.2",
  "updatedAt": "2019-03-20T00:08:48.804Z",
  "devdoc": {
    "methods": {}
  },
  "userdoc": {
    "methods": {}
  }
}